:020000040800F2
:1000000000020020910100087140000892010008E0
:100010009201000892010008920100089201000874
:100020009201000892010008920100089201000864
:100030009201000892010008920100089201000854
:100040009201000892010008920100089201000844
:100050009201000892010008920100089201000834
:1000600092010008C14600087147000801470008D6
:10007000920100089201000892010008E143000883
:100080009201000892010008920100089201000804
:1000900092010008920100089201000881440008C2
:1000A00092010008920100089201000871420008C4
:1000B00092010008920100089201000892010008D4
:1000C00072B6244880F30888234880F30988022008
:1000D00080F31488BFF36F8F04F0C2FB04F018F8AC
:1000E0001E481F491B4A914202DA08600431FAE7B0
:1000F0001C49194A914202DA08600431FAE71A49A8
:100100001A4A1B4B9A4204DA086810600431043220
:10011000F8E700201749184A914202DA08600431D2
:10012000FAE704F05DFB04F093FB144C144DAC4271
:1001300003DA216888470434F9E703F0C9FC114C5D
:10014000114DAC4203DA216888470434F9E70F49BE
:1001500008470000000200200004002055555555B6
:1001600000000020000200201853000800040020B6
:100170003008002030080020180C0020C0000008C3
:10018000C0000008C0000008C00000084148000886
:1001900096E700F000F8FEE7F0B544464D465646B7
:1001A0005F46F0B46B46CB60C3689D46F0BCA0468A
:1001B000A946B246BB46F0BD62B6281CA047002047
:1001C00003F05EFF03F084FF014A024B1360FEE779
:1001D00004ED00E000000080002243088B4274D34D
:1001E00003098B425FD3030A8B4244D3030B8B4238
:1001F00028D3030C8B420DD3FF22090212BA030C41
:100200008B4202D31212090265D0030B8B4219D321
:1002100000E0090AC30B8B4201D3CB03C01A524141
:10022000830B8B4201D38B03C01A5241430B8B4289
:1002300001D34B03C01A5241030B8B4201D30B0372
:10024000C01A5241C30A8B4201D3CB02C01A524199
:10025000830A8B4201D38B02C01A5241430A8B425C
:1002600001D34B02C01A5241030A8B4201D30B0245
:10027000C01A5241CDD2C3098B4201D3CB01C01A5F
:10028000524183098B4201D38B01C01A5241430969
:100290008B4201D34B01C01A524103098B4201D357
:1002A0000B01C01A5241C3088B4201D3CB00C01AC4
:1002B000524183088B4201D38B00C01A524143083C
:1002C0008B4201D34B00C01A5241411A00D2014661
:1002D000524110467047FFE701B5002000F006F8D4
:1002E00002BDC0460029F7D076E770477047C04688
:1002F0008446101C62468C46191C634600E0C046CA
:100300001FB501F0D7FD002801D40021C8421FBD50
:1003100010B501F02FFD4042013010BD10B501F0C5
:10032000C9FD002801DB002010BD012010BDC04622
:1003300010B501F0BFFD002801DD002010BD012037
:1003400010BDC04610B501F051FD002801DC0020B1
:1003500010BD012010BDC04610B501F047FD0028BA
:1003600001DA002010BD012010BDC046002B11D1C4
:10037000002A0FD1002900D1002802D00021C94352
:10038000081C07B4024802A14018029003BDC046F1
:100390005DFFFFFF03B4684601B5029800F048F81E
:1003A000019B9E4602B00CBC7047C046F0B5CE46DD
:1003B000474615042D0C2E0080B50704140C3F0C85
:1003C0009946030C7E435D43674363437F19340CB6
:1003D000E4199C46A54203D980235B029846C44495
:1003E0004B4643435143250C36046544360C2404E4
:1003F000A4195B19591820000CBC90469946F0BD11
:100400009E2110B5C905041C02F0D2FC002803D1BE
:10041000201C00F071FE10BD9E21201CC90500F0BB
:10042000A7FC00F069FE80231B069C466044F2E7AF
:10043000F0B54F464646D646C0B5040082B00D0022
:10044000914698468B422FD82CD04146484602F020
:10045000D7FC29000600200002F0D2FC331A9C468B
:10046000203B9A4600D576E04B46524693401F000B
:100470004B46624693401E00AF4228D825D05346D3
:10048000A41BBD41002B00DA7BE000220023009278
:100490000193012352469340019301236246934006
:1004A000009318E08242D0D90022002300920193E9
:1004B0000A9B002B01D01C605D600098019902B07E
:1004C0001CBC90469946A246F0BDA342D7D9002253
:1004D0000023009201936346002BE9D0FB07984666
:1004E000414672080A437B0866460EE0AB4201D1E2
:1004F000A2420CD8A41A9D41012024196D4100216B
:10050000013E24184D41002E06D0AB42EED9013EEB
:1005100024196D41002EF8D1009801995346001915
:100520006941002B23DB2B005246D3402A0064464E
:10053000E2401C0053461500002B2DDB26005746D9
:10054000BE40330026006746BE403200801A994103
:1005500000900191ACE7624620239B1A4A46DA409C
:100560006146130042468A4017001F4380E76246F7
:1005700020239B1A2A0066469A402300F340134327
:10058000D4E76246202300219B1A002200910192A9
:100590000122DA40019280E72023624626009B1A5E
:1005A000DE402F00B0466646B74046463B00334328
:1005B000C8E7C046F8B54746CE4643025B0A44004A
:1005C000C20F9C464800DD004B02240E5B0A000E61
:1005D00080B5984626009146C90FDB00271A8A424B
:1005E00029D0002F15DD00284AD1002B00D095E03E
:1005F000ED08FF2C00D188E06B025B0AE6B25B02DB
:10060000F605580A3043D20710430CBC9046994671
:10061000F8BD002F00D087E0601CC0B2012800DCCC
:10062000B6E0EE1A720100D5C5E0002E3DD10022E1
:1006300000260023E3E7002F00DC96E000285DD0D1
:10064000FF2C60D08022D20413431B2F00DDECE08E
:100650002022D21B18009340F8405A1E93410343B6
:10066000ED186B017BD50134FF2C00D1B7E00122DE
:1006700007262A406B089A4D1D4015432E4029E05D
:10068000FF2CB5D08022D20413431B2F00DDB2E033
:100690002022D21B19009340F9405A1E93410B436C
:1006A000ED1A6B015BD5AD01AE09300002F08AFB9B
:1006B00005388640844265DC041B33002020013469
:1006C000E340041BA640751EAE41334307261D00C0
:1006D00000241E4001224B461A40002E04D00F2356
:1006E0002B40042B00D004356B0100D480E701348B
:1006F000E6B2FF2C2FD1FF26002380E7002B52D13A
:10070000FF2C00D074E70A00ED08002DF3D0802301
:10071000DB032B435B025B0AFF2670E7013F002FE0
:10072000BED0FF2CB1D163E7002C47D0FF2869D0A1
:100730008024E4047A4225431B2A00DDC5E02C0016
:100740002026D440B21A95406A1E954125435D1B70
:1007500004008946A5E7AB015B0A50E700240122AB
:100760004B461A406B07BAD142E7002F3BD1013408
:10077000E0B201284ADDFF2CBDD00726ED186D0838
:100780002E40A7E70723574D241A35401E40A1E706
:10079000002C1BD1002D6ED1002B00D19AE00A0055
:1007A0001D003C0024E7013F002F00D158E7FF2C3B
:1007B00000D04AE7A7E75E1B894676E7002D1CD1EB
:1007C0000A00FF281FD004001D0011E7002D5DD195
:1007D000002B17D180230022DB03FF260FE70A003E
:1007E000FF2600230BE7002C21D1002D66D1FF2826
:1007F000E9D11D0087E7012352E77A1CA7D0FA430D
:10080000FF2899D10A001D00FF24F1E6002E21D116
:10081000002D4FD0002B4CD0ED186B019ED5314BE5
:1008200007362E4001241D4054E7012318E7FF2816
:10083000DFD08024E4047F4225431B2F4DDC20269B
:10084000F61B2C00B540FC406A1E95412543ED186F
:10085000040006E7002DCCD0002B00D153E7802107
:100860006046C903084203D04046084200D11D003B
:100870000121114047E7002B00D1B9E6EA1A5001E7
:1008800025D507265D1B2E40894623E7FF24002B34
:1008900000D1ADE680226046D203104204D040462B
:1008A000104201D11D00894601224B46FF241A4007
:1008B0009EE62B00DD080A0000249DE67A1CC6D0C7
:1008C000FF43FF28B9D11D001DE701253FE7151E95
:1008D00000D044E70022002391E60125B7E7C04697
:1008E000FFFFFF7DFFFFFFFBF8B557464E4645462D
:1008F000DE464402E0B546008846640A360EC70F5D
:10090000002E63D0FF2E24D08023E400DB041C43A0
:10091000002399469B467F3E434642465D02D20FE6
:100920005B006D0A1B0E9046924665D0FF2B55D09A
:1009300080220021ED00D2047F3B1543F61A434686
:100940004A467B400F2A00D98DE06D4892008258BC
:100950009746002C54D108239946063BFF269B4618
:10096000DAE70025534602291BD0032900D1BFE056
:10097000012928D030007F30002820DD6A0704D00C
:100980000F222A40042A00D004352A0103D5300062
:100990005C4A80301540FE2803DCAC01640AC2B218
:1009A00001E0FF2200246402D205600ADB07104345
:1009B00018433CBC90469946A246AB46F8BD01227E
:1009C000101A1B287CDD00220024ECE7002C1DD12E
:1009D00004239946033B00269B469DE7FF3E002DDE
:1009E00020D1022143464A467B400A430F2AD8D8E9
:1009F0004548920082589746002D19D10121F1E710
:100A00000C239946093BFF269B4685E7200002F010
:100A1000D9F97626431F9C4000237642361A994620
:100A20009B4679E74A4603231A439146032186E70A
:100A3000280002F0C7F9431F36189D407636002182
:100A40007DE780240023E403FF22ACE70025802318
:100A5000DB031C4228D01D4226D12B435C02640AD2
:100A60004346FF229FE762016C01A24224D21B2170
:100A70000025013E012710006D005200002801DB17
:100A8000944201D8121B3D4301390029F3D11400CF
:100A9000621E944125436DE7BA46594625005346E8
:100AA000022900D061E77CE78023DB031C4364025A
:100AB000640A3B00FF2276E7121B1A210125D9E7C1
:100AC0009E362A00B5402C00C240651EAC4114433E
:100AD000620704D00F222240042A00D004346201AD
:100AE00003D4A401640A00225DE7012200245AE72E
:100AF0008024E4032C436402640AFF2253E7C046C7
:100B000020500008FFFFFFF760500008F0B54E4688
:100B100057464546DE46E0B543025B0A450083B0D2
:100B20000F1C99462D0EC60F002D57D0FF2D24D037
:100B30008020DB00C0041843002381469A469B4670
:100B40007F3D7C027A00FB0F640A120E984623D088
:100B5000FF2A4BD0E30080240020E4047F3A1C43AA
:100B6000AD186B1C47460193534677403A000F2B54
:100B700048D87D499B00CB589F46002B00D085E08C
:100B800008339A46063B9B467C027A00FB0FFF2502
:100B9000640A120E9846DBD1002C00D090E0524639
:100BA00001231A4392460120DBE74C4658461700C2
:100BB000022824D0032800D1CFE0002200230128FE
:100BC0004DD15802D205400AFF071043384303B005
:100BD0003CBC90469946A246AB46F0BD002B5BD18B
:100BE00004239A46033B00259B46AAE7FF35002CC9
:100BF00060D1524602231A4392460220B1E7FF22F7
:100C00000023DEE74B461B0C9C464B462604360C65
:100C1000180461463300220C6446000C43434E43E3
:100C20005043544380191A0C1218964203D980215C
:100C300049028C4664441B041B0C1004C018830139
:100C40005E1EB341800E1843130C1B199B01034316
:100C50001C00230179D5012362081C401443019A2A
:100C60007F32002A4DDD630704D00F232340042B7D
:100C700000D00434230103D53C4B019A1C40803240
:100C8000FE2ABCDCA3015B0AD2B29AE70C239A4687
:100C9000093BFF259B4654E7180002F093F84A46AB
:100CA000431F76259A4000236D4291462D1A9A469D
:100CB0009B4646E7524603231A439246032050E7D9
:100CC000200002F07FF8431F2D1A9C40763D002043
:100CD00047E780230027DB03FF2272E7424666E7EF
:100CE0004C463200584662E780234A46DB031A42EC
:100CF00022D01C4220D123435B025B0A4746FF22DD
:100D00005FE701239A1A1B2A21DC23000199D340B3
:100D10009E318C401A0023005C1EA34113435A07E6
:100D200004D00F221A40042A00D004335A0111D4EF
:100D30009B015B0A002244E780234A46DB031343FE
:100D40005B025B0A3700FF223BE7019587E7002241
:100D5000002336E70122002333E78023DB0323430C
:100D60005B025B0AFF222CE7A0500008FFFFFFF7A1
:100D7000F8B54746CE464400C20F80B54702480248
:100D8000400A8446664648007F0A240EF600250085
:100D90009046FB00000EC90FB146FF2800D185E048
:100DA00001267140261A914257D0002E43DD0028BB
:100DB00000D07FE04946002900D1AAE0013E002E84
:100DC00000D0F7E05B1A5A0100D48BE09B019C092C
:100DD000200001F0F7FF05388440854200DDD3E0B4
:100DE000451B230020200135EB40451BAC40621E13
:100DF00094412343072400251C40012241460A4018
:100E0000002C04D00F211940042900D004335901CB
:100E100000D480E00135ECB2FF2D00D0A3E0FF2428
:100E200000235B02E405580AD207204310430CBCA0
:100E300090469946F8BD002E74D1601CC0B20128BE
:100E400000DCA7E04A469C1A620100D5B6E0002CFF
:100E5000BED1002200240023E3E7002E00DC85E061
:100E6000002846D0FF2C49D080224846D2041043A7
:100E7000814601221B2E09DC20204C46801B844029
:100E80004A462000F240441EA04102439B185A01EA
:100E900028D50135FF2D00D1A8E00122072494496F
:100EA0001A405B080B4013431C40A6E7002E00D0FD
:100EB00078E775E7FF2C54D080224946D2041143CD
:100EC000894601221B2E09DC20214846891B8840C7
:100ED0004A460100F240481E81410A439B1A5A01CA
:100EE00000D573E7012241460A40590700D089E73F
:100EF00011E04846002858D1FF2C0CD1DB08002B0C
:100F000000D18CE78020C00303435B025B0AFF240F
:100F100087E7FF2C25D0DB08FF2DF0D05B025B0AB2
:100F2000ECB27EE7002C4DD0FF2818D08024E404DA
:100F3000724223431B2A00DDC4E01C002025D4405C
:100F4000AA1A93405A1E934123434A460500D31AD6
:100F5000884638E7721CF8D0F243FF28EAD10A002D
:100F60004B46FF25D7E79B015B0A5AE7002E41D18C
:100F7000651CE9B2012945DDFF2D00D14FE70724AB
:100F80004B445B081C4038E707225A4B2D1A23407C
:100F9000144032E7002C1DD1002B7AD14B46002B98
:100FA00000D191E00A000025B5E7013E002E19D1DD
:100FB0004B446CE7FF2C84D1FF25ACE74A468846BA
:100FC000D41A05E7002BC5D10A00FF28C8D00500B8
:100FD0004B46A0E7002B49D14B46002B77D00A00A7
:100FE000FF2598E7FF2C00D043E787E70A00FF249E
:100FF000002316E7002C15D1002B57D1FF28E6D18E
:101000004B467BE7002C20D1002B57D049460029C6
:1010100053D04B445A0168D50724364A1C40012559
:101020001340EAE6FF28EBD08022D2047642134335
:101030001B2E53DC2025AD1B1A00AB40F2405C1E7A
:10104000A34113434B44050021E7002BD8D0494668
:10105000002900D152E78021C9030F4200D14DE79A
:101060006046084200D049E74B4647E74846FF251F
:10107000002800D14FE78022D203174204D06046F7
:10108000104201D14B46884601224146FF250A40C5
:1010900041E7484600281FD01A1A500120D54A4679
:1010A0000724D31A1C4088460025A6E6741CC9D024
:1010B000F643FF28BCD14B4620E799464B46002516
:1010C000DB082BE7012340E700220023A9E6802369
:1010D0000022DB03FF24A4E600251CE70123B1E77F
:1010E000002AF1D013000025FCE60025FAE6C046F0
:1010F000FFFFFF7DFFFFFFFB41024200C30F490AD4
:10110000120E00207E2A0DD99D2A0CD880200004C2
:101110000143952A0ADC9620821AD1404842002BCE
:1011200000D108007047034A9818FBE7963A9140AF
:10113000F4E7C046FFFFFF7FF0B54F464646D64670
:101140000C000903C0B5490A470F5E0039431F036D
:10115000DB0F9C4665007B0A570F1F436D0DE40FA4
:10116000760DA146C000B846D200AB1B64457BD0CB
:10117000002B5FDD002E00D0A4E03E00164300D11E
:1011800012E15E1E002E00D09EE1871A4346B8424F
:1011900080410125C91A4042091A0B0200D431E1ED
:1011A00049024E0A002E00D16EE1300001F00AFE25
:1011B0000300083B1F2B00DD61E120223900D21A19
:1011C0009E40D1409F400E439D4200DD51E15D1B9A
:1011D0006B1C1F2B00DD7CE12021C91A3D00300073
:1011E0008F408840DD40791E8F413100072228431F
:1011F000D940002507433A40002A09D00F233B403D
:10120000042B05D03B1DBB42BF417F42C9191F00C3
:101210000B0200D426E26A1CC64B55056D0D9A429E
:1012200000D106E1C44AFF080A40530752023B437B
:10123000120B8EE0002B00D0B8E06B1C5B055B0D41
:10124000012B00DC30E1871A4346B842B641CB1A85
:1012500076429E1B330200D54CE13B003343A1D1C3
:1012600000220024002570E0002B00DCE5E0002EC9
:1012700000D183E0AF4EB54260D0802636043743BC
:10128000B846382B00DC3EE1434613431F007A1E6C
:1012900097413F1887428041404209180B0200D411
:1012A000B0E0A44B01359D4200D1C3E0A24A7B08C7
:1012B0000A4001210F401F435108D30707221F4353
:1012C0003A4099E79B4EB54238D0802636043743E2
:1012D000B846382B00DDDCE01F2B00DC30E11E00BF
:1012E0004746203EF740BC46202B04D04026F31A48
:1012F00046469E403243170063467A1E97411F437D
:10130000CCE0002B00D104E24346134300D159E165
:101310004B07C00818438023C9081B03194208D093
:101320004546ED081D4204D14346D00859070843FD
:101330002900420FC9007F4D1143C0004B07CA0866
:101340007C49C00803438D4268D012036D05120B1F
:101350006D0D002112031800130B0A0D12051A431C
:10136000764B2D0513402B435B00E4075B082343BA
:1013700019001CBC90469946A246F0BD3E0016439B
:1013800012D05E1E002E00D000E1871887428041F7
:1013900041444042091801250B0233D5022585E757
:1013A00064463300414610001D00C7E7002D00D001
:1013B000DAE00C000443F3D05C1C00D19FE15D4CEB
:1013C000A64200D12FE1DB43382B00DD66E11F2B65
:1013D00000DD83E120240500E41A0F00DD40D94040
:1013E000A0404346A7405B1A441EA04198462F43A5
:1013F0003843171ABA42924143465242991A6446F8
:101400003500CAE607223A40002A00D0F6E64B072C
:10141000CA084849FF083B438D4296D11900114341
:1014200000D19EE1802109030A431203120B414DB2
:101430008FE71500002200238BE7002B00D0C7E0C8
:101440006B1C5F057F0D012F00DCF1E0394DAB42D5
:1014500000D1B9E085180A008542894142444942D9
:1014600051180722CF076D082F4349083A401D0045
:10147000C2E607223049ED1A31403A40BCE63E0050
:101480002838864000279FE6380001F09BFC20307A
:101490008EE6434613431F007A1E9741C71BB8428E
:1014A00080414042091A78E60E003B000643134390
:1014B000002D61D1002E00D0F4E0002B00D11BE103
:1014C00064463900100039E71A4FBB427AD0330026
:1014D000FFE630001F3DE840202B03D04021CB1A0F
:1014E0009E4037437B1E9F41072207433A4000211D
:1014F000002589E7171A4346BA42B641591A76427F
:101500008E1B64464EE61F2B00DDADE020264746CD
:10151000F61AB740B9461700B246DF404E463E4382
:1015200037005646B240561EB24117434246DA4093
:101530008918AEE6FF070000FFFF7FFFFFFF0F8067
:1015400020264746F61AB740B9461700B246DF4094
:101550004E463E4337005646B240561EB2411743F0
:101560004246DA40891A99E77F4CA6425BD0802434
:1015700024045B42214327E7002E0CD1002B00D12D
:10158000CBE0644639001000774DD7E6764FBB427A
:1015900018D0330075E6002B14D04B07C008184351
:1015A0008023C9081B03194207D0FC081C4204D140
:1015B0007907D0080843E14621004C46420FC90094
:1015C0001143C000684DB9E61D0000220023C0E6AB
:1015D000002D5BD10D00054300D1E2E65D1C00D17A
:1015E000B0E0614DAE421FD0DB43382B71DC1F2BC6
:1015F00000DD96E020250F00ED1AAF40B946070048
:10160000AA46DF404D463D432F005546A840D940ED
:10161000451EA84188440743BF1897429241514252
:10162000414435003AE6644635004146100085E6FF
:101630000B000343002D00D063E6002BF5D043469A
:10164000134300D17AE6871887428041072241443C
:10165000404209183A400B0200D4D5E6434B01350D
:101660001940C9E5380069E61E004746203EF740AC
:10167000BC46202B04D04026F31A46469E403243F7
:10168000170063467A1E97411F4302E6364DAE426D
:10169000CAD080252D045B422943A6E70843411E9A
:1016A0008841A6E6002B00D148E6871A4346B84297
:1016B000B641CB1A76429E1B33024BD5171A4346CE
:1016C000BA429241591A5242891A072264463A4054
:1016D00092E501430F00791E8F419DE71C000F002A
:1016E000203CE740202B03D04024E31A99400843D4
:1016F000411E884138437CE60022002425E6171A63
:101700004346BA429241591A5242891A64463500F8
:1017100043E541461000144D10E6802200241203D8
:1017200080E61D000F00203DEF40BC46202B03D07B
:101730004025EB1A9940084307006346781E87410D
:101740001F4369E7871897429B4141445B42C91890
:101750003500A3E53B003343CED0072231003A40A9
:1017600052E600231A00F4E5FF070000FFFF7FFFA9
:10177000F0B55746DE464E464546E0B5834607007F
:101780000E03480085B092461C00360B400DCD0F6D
:10179000002800D19DE0954B984239D08023F60077
:1017A0001B041E43924A7B0F334399469446030021
:1017B0006344009300230026FF00029323031B0BC6
:1017C00098466300E40F52465B0D019400D1B3E0EC
:1017D00086498B4200D19EE04246D100802212040D
:1017E0000A435146490F11438B46814952468C4664
:1017F00000996344CB1A0021D20000932B00634070
:101800009A460F2E00D905E17A4BB6009B599F46A8
:101810005B463343994600D0B8E0022308260027F0
:1018200000900293CAE7CB463A0002990195019BCA
:101830009A46022927D0032900D180E2012944D009
:101840006D49009B8C4663441C00002C38DD530717
:1018500000D013E2D2085B46DB0109D55946674B3D
:1018600019408B468021C9008C46009B63441C00B4
:10187000634B9C4207DC5B4664055F075B021743D2
:101880001B0B620D02E000230027584A00211B03B6
:101890001C0B0B0D1B05234314055A4A380013403B
:1018A0001C4353466400DB0764081C43210005B059
:1018B0003CBC90469946A246AB46F0BD012252423E
:1018C00001231B1B382B00DCADE100220023002785
:1018D000DCE75B46334399465ED0002E00D18AE1B7
:1018E000300001F06FFA03000B3B1C2B00DD7BE1A5
:1018F0001D22D31A5A460100DA4008398E401300DF
:101900005F46334399468F403F4B00261B1A009396
:101910000023029352E7414653460B433B499B4603
:101920008C46009B634400935B46002B3BD1022313
:1019300000221E43022161E7434613439B4637D0F2
:101940004346002B00D162E1404601F03BFA030020
:101950000B3B1C2B00DD53E102004146083A91404D
:1019600088461D21CB1A5146D9400B0041460B43F6
:101970009B46534693401A00009B25499C46604471
:1019800003008C4663440093002137E70323B146EC
:1019900000900C26029311E70023009301330426E4
:1019A000002702930AE70323C3461E43032125E7CA
:1019B00001331E430022012120E700239A468023A1
:1019C00000271B03094A61E7802349461B0319428C
:1019D00000D1E2E05946194200D0DEE00B431B0380
:1019E00017001B0BA246014A50E7C046FF07000044
:1019F00001FCFFFFE0500008FF030000FFFFFFFEB7
:101A0000FE070000FFFF0F800DFCFFFF01F8FFFF46
:101A1000F3030000D94500D9CBE000D1C6E03C007B
:101A200048460027009B013B00935B46160E1B02B5
:101A30001E431302984633041B0C9946310C019146
:101A4000FEF750FC4A4642430B04210C05001943A3
:101A50008A4207D98919013D8E4203D88A4201D9A9
:101A6000851E8919881A0199FEF73CFC09048C46E9
:101A70004A46210464464243090C030021438A423A
:101A800004D98919013B8E4200D8F1E02D041D4391
:101A9000AB464346891A4246280C12041D0C5B468D
:101AA000140C22001B041B0C5A4303946B43444345
:101AB000029568431B19150CEB189C4203D980242E
:101AC0006402A44660441C0C15041B042D0C201851
:101AD0005D19814277D373D00C1AA24A7D1BAF42A5
:101AE000BF419446009B7F426344E01B1C0086423A
:101AF00000D1DBE00199FEF7F5FB4A4642430B04B7
:101B0000290C070019438A4207D98919013F8E42DF
:101B100003D88A4201D9871E8919881A0199FEF7CC
:101B2000E1FB09044A46894629044D464243090C13
:101B3000030029438A4207D98919013B8E4203D801
:101B40008A4201D9831E89193F04891A3A00039FEA
:101B50001A43380013041B0C584381460298150C95
:101B60006F43434345434846000C8446DB196344B6
:101B70009F4203D9802040028446654448461F0C9A
:101B800000041B04000C7D191818A94200D284E03F
:101B900000D17FE001231A4357E680234A461B0306
:101BA00013431B031B0BAA466F4A6FE6BA4200D9C8
:101BB00035E74B46DC0758087B081C43FF0734E732
:101BC0000024AF4289D247444745A4415B46644262
:101BD000A4196418013BA6421ED2A0426DD800D1C0
:101BE000B6E0241A9B4678E703005A46283B9A4001
:101BF0000027914688E6584601F0E4F8203072E666
:101C000003005246283B9A4093460022B4E65046D1
:101C100001F0D8F820309AE6A642E2D1B845DCD9E6
:101C2000341A9B4659E71F2B65DC504C0099A4469B
:101C30005C46614408008C4011008240D940501E2F
:101C400082410C4314435A46DA401300620709D01C
:101C50000F222240042A05D02200141D94428941FB
:101C600049425B181A0262D50122002300270DE6C3
:101C70008A4200D80AE7831E891907E70F23134019
:101C8000042B00D1E6E5171D9742924153429B4435
:101C9000FA08E0E5002800D1D7E57118531EB142DB
:101CA00027D3A94215D358D01A0073E7002B00DCC4
:101CB00004E6012300229B44CDE502234744474527
:101CC00089415B429C46494289190C19E344241A14
:101CD00003E743465F0047459B41B8465B429E1978
:101CE000023A8919A94200D054E7404500D051E793
:101CF000ABE51A00F6E71F215F4649420C1BE7409F
:101D0000202B07D01A49009B8C46634418005B4681
:101D100083401A43501E82413A430727002317404D
:101D200009D00F21002311401400042995D122006D
:101D30005F075B021B0BD20817430022A6E5802336
:101D400059461B030B431B0317001B0B064A9DE55B
:101D5000BD42B2D89B460024BFE68045B9D31A00E5
:101D6000C3E7C046FF030000FF0700001E04000099
:101D70003E040000F0B54F464646D6468446C0B500
:101D80008046194E18030F034D00000B5C0082467D
:101D90003F0B6D0DC90F9146640DDB0F0120B5425D
:101DA0000AD0B44203D0A54201D157450CD01CBC87
:101DB00090469946A246F0BD66463E43F7D1AC42F6
:101DC000F5D154461443F2D10120C845EFD19942D0
:101DD00007D0002DEBD163461F433800471EB841A2
:101DE000E5E70020E3E7C046FF070000F0B54F46F7
:101DF0004646D6464D00C0B50E03C90F8A462C494B
:101E00001F035C008046360B6D0D91463F0B640D41
:101E1000DB0F8D421ED08C4216D0002D1ED13043D8
:101E20008446002C01D13A4323D06246002A1AD0BE
:101E30009A4529D0514602200139084001381CBC7E
:101E400090469946A246F0BD39001143E5D00220E4
:101E50004042F4E73043FAD1AC420FD0002C0FD10E
:101E60003A43E7D00CE00122013B934318000130D4
:101E7000E5E763460020002BE1D0DBE73A43E6D1FB
:101E80009A45D7D1A542D5DCA54205DBBE42D1D8C3
:101E900008D00020BE42D2D25046012301389843D8
:101EA0000130CCE7C845C5D80020C845F4D3C6E703
:101EB000FF070000F0B54F464646D6464D00C0B578
:101EC0000E03C90F8A462E491F035C008046360B5D
:101ED0006D0D91463F0B640DDB0F8D4218D08C4287
:101EE00011D0002D18D130438446002C1ED13A4326
:101EF0001CD163460020002B30D05146022001390E
:101F0000084001382AE039001143EAD0022025E0D8
:101F10003043FBD1AC4226D0002C26D13A4324D109
:101F20005146022001390840013817E06246002A74
:101F30000FD09A45E1D1A54205DBBE42DDD819D0CC
:101F40000020BE420AD25046012301389843013096
:101F500004E00122013B9343180001301CBC904671
:101F60009946A246F0BD3A43D0D19A45C5D1A54283
:101F7000C3DCE0E7C845C0D80020C845E3D3EDE79F
:101F8000FF070000F0B55746DE464E464546E0B531
:101F9000834606000F03480087B092461D003F0BA2
:101FA000400DCC0F002800D16FE0DE4B984238D0B6
:101FB0008023FF001B041F43730F3B430193DA4B45
:101FC0000027994600239B46F60081442B036900B5
:101FD0001B0B52469846490DED0F002900D185E0B4
:101FE000D04B994200D173E04346DA0080231B04B2
:101FF00013435246CC48520F8446134352460020A6
:102000006144D20089442100694000918C4601213D
:1020100049448A460F2F00D990E0C449BF00CF59E8
:10202000BF465B463B43019300D06AE10223082789
:10203000002681469B46C9E732005846019B61460F
:102040000091022800D175E0032800D1FEE10128AB
:1020500000D02CE100230027002600253F032A0D95
:102060003F0BB34812053A4302401B051343009A45
:102070005B00D1075B080B433000190007B03CBC84
:1020800090469946A246AB46F0BD5B463B43019362
:1020900000D12FE1002F00D1A5E1380000F092FE21
:1020A00003000B3B1C2B00DD96E11D22D31A5A4680
:1020B0000100DA405E4608398F4013008E403B43F2
:1020C00001939C4B00271B1A994600239B467DE7F2
:1020D000414653460B4393498C46E144002B00D0C4
:1020E0001AE102220220174300228CE7134300D199
:1020F0000DE14346002B00D181E1404600F062FE35
:1021000002000B3A1C2A00DD72E101004346083947
:102110008B4098461D239A1A5346D3401A004346D3
:10212000134352468A404946081A824989468144E7
:10213000002068E77B4B002700268EE7140C120472
:10214000120C1100370C3604350C794328008C46EC
:102150002E0060436044834656432100300C804685
:102160005846794340440291844506D988468021E7
:1021700049028C46E044414602913604010C360C7B
:1021800000048B4681191E0C1B041B0C03911900C3
:1021900079438C46280075436544A8465843050C8E
:1021A00045447743A94203D9802149028C466744BC
:1021B000290C8C4639000004000C2D042D186144B4
:1021C000AB4405915946049101990F043F0C080C4A
:1021D000390051434243904602008C46090C8B461D
:1021E00062437C4344445C44A04503D980214902B6
:1021F00088464244210C884661460904090C8C46F5
:1022000039005943434370437E430F0CF6182404AE
:10221000BE19644442448C46B34203D980235B0216
:1022200098464044029B61469846049B37044344C9
:102230009B46AB45AD416B420D0405992D0C8C4678
:102240007F196744FD18A8465D462D19A542A44193
:1022500093466442A446C344DC448F42BF41984540
:102260009B4193459241A445A4415B427F421F4359
:10227000360C52426442BF192243BF1862463818D6
:102280004302D20D039913436A020A43501E82414E
:102290006146ED0D2A434E023243D90100D4B3E02A
:1022A0000126500832400243DE0732435B08224CCD
:1022B0005444002C62DD510709D00F20104004283F
:1022C00005D0101D9042924152429B180200D90144
:1022D00004D580241948E40003405444184884423B
:1022E00000DD27E75E075B02D2081F0B630516437C
:1022F0005B0DB2E6002399460133042700269B4676
:1023000064E60323019781460C279B465EE6012283
:1023100001201743002276E6032303201F43434690
:1023200071E6C046FF07000001FCFFFF20510008D6
:10233000FFFF0F800DFCFFFFFF030000FFFFFFFE0C
:10234000FE0700000023802700933F030026434B35
:1023500083E6019B3200A446584670E6AC466EE622
:10236000802701993F0339422DD03B422BD11F4397
:102370003F033F0B00951600384B6EE601252D1BE1
:10238000382D00DD66E61F2D40DC35481C0050442A
:10239000160082408440EE40501E82413443144374
:1023A000EB40620709D00F222240042A05D0220008
:1023B000141D9442804140421B181A023ED501234D
:1023C0000027002649E68027019B3F031F433F0368
:1023D0003F0B0094214B40E603005A46283B9A40AD
:1023E000002601926DE6584600F0ECFC203057E6DE
:1023F00003005246283B9A401300002293E65046C1
:1024000000F0E0FC20307BE6CA4650E71F201E00AB
:102410004042041BE640202D03D0124C5444A340FC
:102420001A43501E8241324307260027164009D026
:102430000F200023104014000428B9D122005E07A9
:102440005B021F0BD2081643002306E680273F03DA
:102450001F433F033F0B1600004BFEE5FF07000044
:102460001E0400003E040000F8B557464E4645469F
:10247000DE460C000903E0B5490A460F5F00314310
:102480001E03DB0F760A9B46530F3343C84E65008D
:10249000C000E40FD2006D0DA24681467F0D9C4620
:1024A0009046B74200D1B9E05B46012673409B4697
:1024B000EE1BA34500D183E0002E63DD002F00D08A
:1024C000B1E06346134300D123E1731E002B00D01B
:1024D000BAE1861A6346B04280410125C91A4042DA
:1024E000091A0B0200D447E149024B0A98464346B9
:1024F000002B00D189E1404600F064FC0300083B5A
:102500001F2B00DD7CE120223000D21A4146D04052
:10251000994002009E400A439D4200DD6AE15D1B36
:102520006B1C1F2B00DD94E1202110003500C91A1F
:102530008E40DA408840DD40711E8E411100072236
:102540002843002506433240002A09D00F23334098
:10255000042B05D0331DB342B641764289191E00C3
:102560000B0200D43DE26A1C914B55056D0D9A4259
:1025700000D119E18F4AF6080A4057075202374343
:10258000120B9BE0002E00D0C5E06E1C7605760D88
:10259000012E00DC48E16746861ACB1BB042BF41E2
:1025A0007F42B8461F004346FF1A3B00B8461B0255
:1025B00000D55FE137439AD100220024002579E05D
:1025C000002E00DCFAE0002F00D18DE0784B9D4218
:1025D00067D0802367461B041F43BC46382E00DCAF
:1025E00052E1634613435A1E93411E1886428041AE
:1025F000404209180B0200D4BEE06D4B01359D42EC
:1026000000D1D2E06B4A73080A4001210E401E43FC
:102610005108D30707221E43324095E71E00164398
:1026200000D045E740E7624B9D423AD080236746A1
:102630001B041F43BC46382E00DDEBE01F2E00DCE0
:102640003AE133006746203BDF403B00202E05D0B7
:102650004027BF1B6646BE40324390464646721E28
:1026600096413343DAE0002B00D114E26346134372
:1026700000D168E180234E07C008C9081B03064348
:10268000194208D06046C008184204D163460100D0
:10269000D2085E071643F3009946C900720F444DF5
:1026A00011434B46DE08424B4F073743CA089D4251
:1026B00000D16EE012036D05120B6D0D00211203A7
:1026C000130B0A0D12051A433B4B2D0513402B43E8
:1026D0005B00E4075B082343380019003CBC9046CC
:1026E0009946A246AB46F8BD6346134311D0731E0C
:1026F000002B00D007E186188642804161444042A9
:10270000091801250B0237D502257BE73E006146FB
:1027100091463500C5E75C46002D00D0E1E00B0096
:102720000343F3D0731C00D1ACE1214B9F4200D195
:102730003AE1F343382B00DD6FE11F2B00DD8CE124
:1027400020250E00ED1AAE40B0460600AA46DE4037
:10275000454635432E005546D940A8406346451EA0
:10276000A8415B1A9C463043161AB2429241634616
:102770005242991A3D00B4E607223240002A00D0A6
:10278000E4E60B4BF6084F073743CA089D4200D0DA
:1027900090E73B00134300D1A6E180231B031A43BB
:1027A0001203120B024D89E715000022002785E76E
:1027B000FF070000FFFF7FFFFFFF0F80002E00D00C
:1027C000C7E06B1C5E05760D012E00DCF0E0C84D05
:1027D000AB4200D1B9E085180A00854289416244C4
:1027E000494251180722CE076D082E43490832404E
:1027F0001D00A9E6BF49ED1A114007223240A3E6A9
:10280000320028388240002686E6300000F0DAFAEE
:10281000203073E6634613435A1E9341C61AB042F2
:1028200080414042091A5CE60E00674606431743A2
:10283000002D5ED1002E00D0F3E0002F00D11EE16C
:102840005C46614691462CE7A94FBE427BD01E00F4
:10285000F1E610001F3DE840202B03D04021CB1AA9
:102860009A401643731E9E410722064332400021C0
:10287000002583E7161A6346B2428041591A404246
:102880000B1A98465C4632E61F2E00DDABE020278F
:10289000BB1B9A4663465746BB40994613004F46BA
:1028A000F3401F433B005746BA40571EBA411343FB
:1028B0006246F240891898E62027BB1B9A46634679
:1028C0005746BB40994613004F46F3401F433B0019
:1028D0005746BA40571EBA4113436246F240891A1E
:1028E0009CE7834B9F425FD080252D047342294390
:1028F00020E7002E0CD1002F00D1D0E05C466146CD
:1029000091467B4DCDE67A4FBE421CD01E0065E657
:10291000002F18D0C0084E0706438020C9080003C6
:10292000014208D06346DC08044204D12100DA46A3
:10293000D2085E071643F300994601245346C900A6
:10294000720F11431C406A4DABE61D0000220027A8
:10295000B4E6002D59D10B00034300D1D6E6731C19
:1029600000D1B2E0624B9F421ED0F343382B6FDCA4
:102970001F2B00DD97E020250E00ED1AAE40B0467B
:102980000600AA46DE40454635432E005546A8407F
:10299000D940451EA8418C440643B6189642924140
:1029A000514261443D0025E63D006146914678E68E
:1029B0000B000343002D00D055E6002BF5D06346F5
:1029C000134300D16DE6861886428041614440423F
:1029D000091800220B0200D4D0E6464B01351940FD
:1029E000B2E5B1465DE633006746203BDF403B0081
:1029F000202E05D04027BF1B6646BE40324390467E
:102A00004646721E96413343EFE5394B9F42CBD089
:102A100080252D0473422943A8E70843411E8841BD
:102A2000A2E6002F00D13CE66346861ACF1AB042D8
:102A30009B415B42FB1A98461B024ED5161A634611
:102A4000B2429241591A5242891A5C4600227BE5F1
:102A500001430E00711E8E419FE71D000E00203DB8
:102A6000EE40B046202B04D04025EB1A9940084395
:102A7000814648464346411E8841184374E6002279
:102A8000002417E6161A6346B2429241591A52427E
:102A9000891A3D0025E561469146154D01E68022E3
:102AA0000024120379E61D000E00203DEE40B046E2
:102AB000202B04D04025EB1A9940084381464E460E
:102AC0004346711E8E411E4367E7861896429B411E
:102AD00061445B42C9183D008CE547463743CED080
:102AE00007224146324049E600273A00E6E5C04663
:102AF000FF070000FFFF7FFF70B50C4E0D031C03A6
:102B000049005B002D0B490D240B5B0DB14208D031
:102B1000064900208B4203D114432000441EA041EB
:102B200070BD05430120002DFAD1F1E7FF07000039
:102B300070B500282DD0C317C5185D40C40F2800FC
:102B400000F040F9154B1B1A5B055B0D0A2815DDDB
:102B50000B38854000222D032D0B002110002D0382
:102B60000A0D2D0B12052A430D4D1B052A40134358
:102B70005B00E4075B082343190070BD02002900D5
:102B8000153291400A000B21081AC5402D032D0B68
:102B9000E3E70024002300250022DEE71E040000F6
:102BA000FFFF0F804100090E4B1C70B5DBB24602DF
:102BB000750AC40F012B14DDE0239B006D07360B53
:102BC000CB1800210A0D280012051C4D32435B056D
:102BD0002A405B0813435B00E4075B0823431900AA
:102BE00070BD002914D1002D1ED0280000F0EAF895
:102BF0000A281CDC0B232A001B1ADA4003001533B9
:102C00009D400F4B12031B1A5B05160B5B0DD8E79B
:102C1000002D06D0320B802636036D071643094B74
:102C2000CFE7084B0026CCE700230026C9E70300C6
:102C30002A000B3B9A400025E3E7C046FFFF0F80C8
:102C400089030000FF070000F0B54C00640D0B0382
:102C5000621C5B0A460F5205C90F1E43C500520D88
:102C6000012A29DD374BE718FE2F1CDC002F3BDD46
:102C70008001431E98410722F3006D0F03432B434D
:102C80001A40002A04D00F221A40042A00D004332C
:102C90008022D2041A4024D00137FAB2FF2F02D08A
:102CA0009B01580A01E0FF2200204002D205400AA1
:102CB000C90710430843F0BD3543002C04D1002D53
:102CC0000AD100220020F0E7002DECD08020C003C4
:102CD0003043FF22E9E7002400235B02580AE2B2F6
:102CE000E3E7DB083C00F8E73B001733F3DB802326
:102CF0001B0433431E26F61B1F2E14DD02225242F4
:102D0000D71B1A00FA401700202E04D00E4A944612
:102D10006444A3401D432B005D1EAB4107223B438F
:102D20001A400027ADE7094A2800A21895409340B1
:102D30006C1EA541F04007222B4303431A40002795
:102D40009FE7C04680FCFFFFA2FCFFFF82FCFFFF65
:102D50008446081C6146FFE71FB500F0D3F8002841
:102D600001D40021C8421FBD10B500F055F8404203
:102D7000013010BD10B500F0C5F8002801DB0020BF
:102D800010BD012010BDC04610B500F0BBF80028F2
:102D900001DD002010BD012010BDC04610B500F0BF
:102DA00063F8002801DC002010BD012010BDC046E2
:102DB00010B500F059F8002801DA002010BD0120FC
:102DC00010BDC0461C2101231B04984201D3000CF6
:102DD00010391B0A984201D3000A08391B0998428E
:102DE00001D30009043902A2105C40187047C046A4
:102DF00004030202010101010000000000000000C4
:102E000010B5002903D1FFF7DDFF203002E0081CD8
:102E1000FFF7D8FF10BDC04670B542004E024C000F
:102E200045026D0A120EC30F760A240EC90FFF2A3F
:102E30000FD0FF2C11D00120A24200D070BDB542AE
:102E4000FCD18B420DD0002AF8D12800451EA841A4
:102E5000F4E70120002DF1D1EBE70120002EEDD1A8
:102E6000E9E70020EAE7C04670B54A004E02450295
:102E700044006D0A240EC30F760A120EC90FFF2CF0
:102E800015D0FF2A0ED0002C15D1002A01D1002E1A
:102E90001CD0002D14D08B4227D00220013B1840BB
:102EA000013870BD002EEED002204042F9E7002D1F
:102EB000FAD1FF2A0ED0002A0ED1002EEDD00BE061
:102EC00001230139994308000130EAE70020002D71
:102ED000E7D0E2E7002EE7D18B42DED1944205DD58
:102EE0000221581E08400138DBE70024A24204DC1E
:102EF000B542D2D80020B542D3D2581E0123984300
:102F00000130CEE730B5420044024D02C30F480005
:102F1000640A120E6D0A000EC90FFF2A12D0FF2894
:102F20000CD0002A12D1002819D1002D17D1002C65
:102F30002BD00220013B1840013826E0002DF0D0B4
:102F4000022022E0002CFBD1FF281FD000281FD137
:102F5000002D1DD10220013B1840013815E0002C46
:102F60000ED08B42E5D10022904204DCAC42E0D886
:102F70000020AC4209D2581E01239843013004E0DE
:102F80000123013999430800013030BD002DD7D10C
:102F90008B42CED18242E7DD0221581E0840013823
:102FA000F3E7C04600000000000000000000000041
:102FB00030B572B60A4B4C1E1D684942AA1800195A
:102FC00012190A40014058685118814205D88D42B3
:102FD00003D8196062B6100030BD0022FAE7C0467F
:102FE000800A002000000000000000000000000037
:102FF0008021024A13680B43136070470038014078
:1030000072B6EFF30983203B83F3098880225204D0
:10301000DA61064A1168926989689268914202D819
:10302000034A9A617047034A9A61FBE7EC08002063
:10303000C8010008C50100080000000000000000F1
:1030400030B50A4C4B4225686A1E521801390918DE
:103050001A40194063685118994204D88D4202D829
:103060002160100030BD0022FBE7C046800A00202E
:1030700072B62023C35C072B0CD8124A9B00D3588E
:103080009F46426A936801339360026843681A60FE
:1030900002685360012300225B4243622133C25421
:1030A0008268094B1B6899689142FBD25A68036099
:1030B00042601060586062B670470022436A1A602E
:1030C000E8E7C04660510008EC080020000000005E
:1030D00020230022C2548268054B1B6899689142E4
:1030E000FBD25A6803604260106058607047C04667
:1030F000EC080020000000000000000000000000BC
:10310000F0B5C646184D00B56C6804350600AC42F3
:1031100022D000232027984604E00B2A1FD02468E1
:10312000AC4219D0E3683343E360002E02D0226939
:103130001A42F4D06068A368426B13434363C25DD4
:103140000A2AEAD1426A1A42E9D043464362FFF7AB
:10315000BFFF2468AC42E5D104BC9046F0BD426A92
:1031600013409A42DBD1F0E7640800200000000021
:10317000FEE7C04600000000000000000000000064
:103180000323F0B557464546DE464E461340994662
:103190000123E0B59846063352079B46043B83B0B3
:1031A000D20F00279A464D460FE0066833402B4366
:1031B0000360072F3FD8036A019E1C402643066226
:1031C000490831D05200AD00013743460B42F7D0D9
:1031D0005C4646463C40A400A64001964646BE409A
:1031E0004368B34356461343436083689C467B0061
:1031F0009E40F34366461E408660C6681E40C66019
:103200000F26A640F4434E46022ECED1072F18D8E3
:10321000066A3440019E264306620468490823403A
:103220002B4303600029CDD103B03CBC90469946A6
:10323000A246AB46F0BD436A019E1C40264346624F
:10324000BEE7466A3440019E26434662E5E7C04633
:103250000020704700000000000000000000000097
:10326000F0B501242600427C124D964037002B68B1
:1032700001001F400120002F15D10F48D200175028
:1032800082180E485060DA060ED00F244A68334385
:103290001068A04310600C7C08680E21A1404160BA
:1032A00000202B601060F0BD054A50690443546152
:1032B000EBE7C046A40A0020C40800203008002024
:1032C00000100240000000000000000000000000AC
:1032D00070B50025124B8268996945628C68A242DC
:1032E0000BD8202145541B6899688A42FBD95A683B
:1032F000036042601060586070BD20228D541A0037
:1033000012689568AC42FBD954680A604C60216031
:103310005160986101222023C254FCF73DFFEBE786
:10332000EC08002000000000000000000000000089
:103330002022074B10B599698854186804686360A7
:103340001C60986101238354FCF726FF10BDC04622
:10335000EC08002000000000000000000000000059
:10336000F0B587B04B1C5ED0424C01ADA3692B6118
:10337000414BEB608023DB055E6A022937D32200D4
:10338000E3691C32934238D0A76A9A68F61B711819
:103390008E4241D91B68891A9A689142FAD85A68B4
:1033A00001936A6015605D60A9609A68511A99601E
:1033B00001235B426362FFF7BBFF049B002B12D02B
:1033C000E269019BAA4232D06A681360019B5A608D
:1033D0000022EA6022001C32934204D09968AA6855
:1033E0008C4662449A60A369586A07B0F0BD220017
:1033F000E3691C3202219342C6D101936B608023A2
:103400000022A960DB057118A662E5612562596397
:103410001A610232DA60CEE79142BED280267F186E
:10342000F6057763B9E7FFF783FF124CDBE722006D
:1034300000211C32E3615A60E960934215D099681B
:10344000AA688C4662449A608023DB05A16A5B6AA5
:103450005B1A9A42C7D9D01A012804D980238A1846
:10346000DB055A63BFE79A1CF8E78023DB05D960C8
:10347000B9E7C046EC0800207130000800000000E9
:10348000F8B572B600253B4CA56003352570256B59
:1034900062B6E66A676A76683760F0607160A16A52
:1034A000206A49680860CA6080224B60D205566A6B
:1034B00072B68021AB6909020B420FD0F420536A27
:1034C000FF309B1B834204D940E0536A9B1B83421D
:1034D0003CD862B672B6AB690B42F6D16368206B1A
:1034E0009E68330538D56A234360E36A59684A68A1
:1034F000FF2A38D800239C46120443681E4F3B40E5
:103500003343134362461343012243600B68032095
:1035100013430B602B683F3213432B6080236A6890
:103520009B01134322006B60144B1C329B691449AE
:10353000E3615A62FFF714FF431C02D00223237099
:1035400008E080236A68DB0113436B6005230120D8
:103550002370404262B6F8BDD4234360E36A5968E1
:103560004A68FF2AC6D98023FF225B0412049C46C6
:10357000C3E7C04630080020FFFF00FEEC08002033
:103580001027000000000000000000000000000004
:1035900010B500290AD0074B42689B6918605A6031
:1035A000136043600420FFF7DBFE10BD01204042A2
:1035B000FBE7C046EC08002000000000000000000F
:1035C00070B504000E00150072B605E02900200059
:1035D000FFF7DEFF002817DBA368002BF6D0A368F7
:1035E000013BA36063695A1C62611E7063692269B2
:1035F000934201D3E3686361E369002B01D02000AB
:10360000984762B6002070BD62B6FCE7000000007B
:1036100010B53030FFF7D4FF10BDC04600000000E9
:10362000012210B530305242FFF7CAFF10BDC0462C
:1036300070B504000D0072B605E029002000FFF708
:10364000A7FF002816DBA368002BF6D0A368A269A9
:10365000013BA360531CA36115782269934201D3F7
:10366000E368A361E369002B01D02000984762B6AC
:10367000280070BD62B6FCE70000000000000000FA
:1036800010B50C30FFF7D4FF10BDC046000000009D
:10369000012110B50C304942FFF7CAFF10BDC046EA
:1036A000F0B5DE464E4645465746E0B58B4B8C4A54
:1036B0009B6987B09A618B4B05AC23800022002365
:1036C00002212000FFF7DCFE03AD04AE0023994683
:1036D0002B70337028232A0023700121273B200000
:1036E000FFF7CEFE2923320023700121283B200062
:1036F000FFF7C6FE32782B78120213431BB29846AE
:103700009BB29B464B462B7033702A232A002370B2
:103710000121293B2000FFF7B3FE2B233200237049
:1037200001212A3B2000FFF7ABFE33782F781B02E4
:103730001F433FB2BBB29A464B462B7033702C23CB
:103740002A00237001212B3B2000FFF799FE2D2337
:103750003200237001212C3B2000FFF791FE3278CC
:103760002B78120213431BB29AB291464246002AAA
:1037700003DA5A46524292B29346002F03DA524677
:10378000524292B29246002B03DA4B465B429BB206
:1037900099465846FFF7CCF90022534BFEF7F2FB4F
:1037A000FFF752FA071C5046FFF7C2F900224E4BB2
:1037B000FEF7E8FBFFF748FA82464846FFF7B8F9FC
:1037C0000022494BFEF7DEFBFFF73EFA391C80462C
:1037D000381CFDF79BF9514681465046FDF796F996
:1037E000011C4846FCF7E6FEFFF7DCF901F03EF865
:1037F000009001915046FFF7D5F9009A019B01F026
:1038000031F80022394BFEF7BDFB394A394BFDF741
:10381000AFFFFFF719FA81464046FFF7C3F980234F
:103820001B0600900191F818FFF7BCF9009A019B64
:1038300001F018F800222D4BFEF7A4FB2C4A2D4B6B
:10384000FDF796FFFFF700FA2B4982464846FDF741
:103850004BF82A49071C5046FDF746F8391C8146AB
:10386000381CFDF753F9494682464846FDF74EF9A4
:10387000011C5046FCF79EFEFFF794F900F0F6FF9E
:103880004846FFF78FF900900191381CFFF78AF93D
:10389000009A019B00F0E6FF8023194A5B00516902
:1038A0004B40536172B617494046FDF72FF9FCF7BC
:1038B000A7FD154A002380B20021FCF777FD002305
:1038C000124A80185941FA2200239200FCF74EFD5B
:1038D00001000820FFF744FD62B6F7E6EC0800207F
:1038E00080510008104100000000103F0080664039
:1038F000182D4454FB2109400000B4420000344319
:10390000000800480000484310270000E7030000BB
:10391000F0B557464546DE464E46E0B583B00193C6
:10392000C3690400884617009A4672B60023994678
:10393000002A0BD126E05346002B01D02000D047AF
:1039400062B6A944A84472B64F451BD9A3683D008E
:103950009F4200D9A568606923691E1AAE422AD821
:1039600019D32A00414601F015FBE3686361A3689F
:103970005B1BA360002DDED101992000FFF708FE3C
:103980000028E1D062B6484603B03CBC9046994658
:10399000A246AB46F0BD3200414601F0FBFA3100D1
:1039A000AB1B9B461A004144E06801F0F3FAE36860
:1039B0005B446361DBE72A00414601F0EBFA63698F
:1039C0005B196361D3E7C0460000000000000000FF
:1039D00010B53030FFF79CFF10BDC046000000005E
:1039E000012310B530305B42FFF792FF10BDC04697
:1039F000F0B557464546DE464E46E0B583B00193E6
:103A0000C3690400884617009A4672B60023994697
:103A1000002A0BD126E05346002B01D02000D047CE
:103A200062B6A944A84472B64F451BD9A3683D00AD
:103A30009F4200D9A568A16923695E1AAE422AD8BF
:103A400019D32A00404601F0A5FAE368A361A368F0
:103A50005B1BA360002DDED101992000FFF798FDCC
:103A60000028E1D062B6484603B03CBC9046994677
:103A7000A246AB46F0BD3200404601F08BFA300062
:103A8000AB1B9B461A004044E16801F083FAE368EF
:103A90005B44A361DBE72A00404601F07BFAA3699F
:103AA0005B19A361D3E7C0460000000000000000DE
:103AB00010B50C30FFF79CFF10BDC04600000000A1
:103AC000012310B50C305B42FFF792FF10BDC046DA
:103AD000F8B5DE4657464E464546F74BF74A996AD3
:103AE000E0B50A439A6200229A62196901214942AB
:103AF00019611A61D868F2490143D9608021DA60FE
:103B0000D86949050143D9618021EE48490004681C
:103B100021430160C020196A800001400138FF384C
:103B2000814203D08021490219621A628022E24B4D
:103B30001202196A114207D18021186A89000143D3
:103B40001962196A0A431A620025DF4BDF4A1D60B9
:103B50005D60DF4B01211D60DE4B49421D60156039
:103B6000DD4A9D601560DD4A1D611560DC4A9D617E
:103B70001560C1221D62DB4B92005960DA4BDB48B5
:103B800098469B58C0241840C0231B02034340465C
:103B9000835020236400035103608058D44B464671
:103BA0009A461840C0231B040343404683504023D9
:103BB000035103608358C0201B0200061B0A034305
:103BC000B35080220123CB4F3251994632603B7073
:103BD0003B000C33FB603B61C74B7D607D613B6309
:103BE000C64BC74E18001433FB6233002830B8624E
:103BF000C448756101C373604B46337233000C33A4
:103C0000F3603361C04BC620B3617362336210331B
:103C1000F36133003033336373631023B363BB4BFF
:103C2000FD61F363B364736410333364B84BB562FE
:103C3000F364B84BF6627365B74B3665B3654346BC
:103C4000C02280001B5812061B021B0A1343424667
:103C5000135080231B0513511360974B4A469B4614
:103C6000DB69AE4813435A46D3614A4683688D34B4
:103C7000134383608023AA48DB059862D9629D6163
:103C80005D63DD605D605A611A6043468020424694
:103C9000FF341B5900061B021B0A034313518023E8
:103CA0008D3C1B02FF3C13519E4C136023002422C9
:103CB0001C33E361236261629B4B9C492460196061
:103CC0009B496460A560A56259609A4B9A499446E5
:103CD000196019000C315D609D6019615D61D960EA
:103CE000964B04209C44624619005A6228221031E7
:103CF000196114219446996191499C441962996310
:103D0000190062463C31D96319009A621C22403185
:103D1000196421009D605D61D861DD621A6358639A
:103D20001B605B60874B6432A36423005831A2633D
:103D3000E266A56665662464A165210030332361CF
:103D40006361A3614A4650235C31E165216601212C
:103D5000E25252467C480233E564E154036A6464EB
:103D60001340036262B672B66C229446774BAC2065
:103D70009C4462461B5010381A50802274489D5053
:103D8000D86774480C32985048460C3298503432F8
:103D90009850043A9D50043A9D500130143A98527C
:103DA000023299546C490A3A99501800A421083AF1
:103DB0009C50626990305A5019001061B822B83195
:103DC00099501A00BC21BC325A5004315A506061DB
:103DD000FFF77EFA62B672B6604B4A467B603B6B79
:103DE0009A461B689343524613603B78012B00D1DF
:103DF000F3E05B4A5B4B5046B96A243049688860FF
:103E0000F96A04304968886051460B600A610122F2
:103E10000B6813430B6002233B7062B6862240217D
:103E20005148FFF7ADF9862280214F48FFF7A8F9E6
:103E300072B6337A012B00D104E19621B06D0902EC
:103E4000FCF7CAF94023756D0127E8606B602E23EB
:103E5000FF33AF602B602F3BFF3B2B625C220225C0
:103E6000B354357262B68021902026328900C00595
:103E7000FFF786F9802190208222C900C005FFF754
:103E80007FF972B6394B8E22190052009B50DC31FB
:103E9000103A99503649203A99500022F0212D4885
:103EA0005A500C31585084207C394000195034301D
:103EB0001950B8315EE0C04600100240FFFFA1FF7C
:103EC000FFFFBFFF00700040A40A00201C0002405A
:103ED00008000240C40800203000024044000240B4
:103EE000580002400000024000E100E0FF00FFFF38
:103EF000FFFF00FF300800200054004084510008FC
:103F0000640800209C520008AC0A0020BC0A002073
:103F1000F12F000800380140006CDC02005801401D
:103F2000BF120000EC080020800A0020180C0020BE
:103F300000200020880A0020B12F0008600900201E
:103F400041300008E851000800ED00E0A809002019
:103F500071310008B90100080C5200080052000835
:103F6000150F42F090C0000000040048D00A002065
:103F7000A13600085A5004395A502132FF329D525E
:103F8000344902329F540A3A99508A21083A9C5087
:103F90006269581C49005A50FF3019001061942280
:103FA0002931FF31520099501A0096212D32FF32EB
:103FB00049005A5004315A506061FFF789F962B6DE
:103FC000254CFF35FF3563696B40636172B6234949
:103FD0000820FFF7C5F962B6F5E799337B62103B1D
:103FE0003B625B461A69802359469B031A430A6168
:103FF0000D61CA69B86A1343CB61FFF731F9F86AFA
:10400000FFF72EF980233A6A5B011A433A627A6A13
:10401000C0211343C5227B62434692009B58090688
:104020001B021B0A0B4341468B508023C021424692
:104030001B044900535013607A68094B5168126899
:104040000B43D8E68023074ADB0191690B43936158
:10405000F3E6C0461452000800080048102700008C
:1040600090C00000001002400000000000000000AE
:10407000EFF30983203383F3098862B67047C046A3
:1040800070B572B60F4B9C6925006062A06A283536
:10409000A84206D00368A362FFF71AF8A06AA842F4
:1040A000F8D12223E35C002B08D12133E35C9B078A
:1040B00004D1226963691A61226953610F20FFF7F5
:1040C00037F970BDEC08002000000000000000007F
:1040D0000D4A70B510689169036820245A60136016
:1040E00090610122002502558A680D5500E01B6889
:1040F0009C68A242FBD35A680B604A601160596009
:10410000FCF74AF870BDC046EC0800200000000033
:10411000BC21474AC903936A30B50B43936200231D
:1041200093625069A02401435161FC209021000654
:10413000C9054B6088603F48A405C8603E483F4DB4
:1041400048610B624B620C60FC243D49A4004B604B
:104150008C603C4CCC6048610B624B620B603A490E
:104160004B608D60394DCD60394D4D61A025ED021C
:104170000B624B620D6037494B608B60CC604861CD
:10418000354C0B624B620B6034494B608B60CC60EA
:1041900048610B624B620B60012113680B43136093
:1041A000130001311A681142FCD003215A688A4376
:1041B0005A601F4A093153680B40FCD1F92110683D
:1041C0000140116001215360536B0B435363184A44
:1041D0000131536B1942FCD00121536A0B435362E6
:1041E000134A0131536A1942FCD0A02100238903EC
:1041F000D36251601363802311685B040B438021F9
:1042000013600B4A890413680B42FCD01121144B34
:10421000196053680F390B435360054A0A315368DC
:104220000B40082BFBD1012193690B43936130BDF7
:104230000010024054555565FFFF000000000FF0CC
:10424000000400485555555500080048555550057F
:10425000FFFC0000000C0048505555550014004864
:1042600000200240000000000000000000000000EC
:10427000F8B54746CE46584C80B5666DF04637686F
:10428000F56935622B071DD1EB0531D4AB0637D468
:1042900080233B4201D02B425AD16B0609D572B61E
:1042A000636CA26C934200D174E040239F4337605B
:1042B00062B643460F3301D0FEF7A2FE0CBC904617
:1042C0009946F8BD2807C00FC001EB0701D5202390
:1042D0001843AB0701D5402318436B0702D5802351
:1042E0005B00184372B6FEF70BFF62B6EB05CDD547
:1042F00072B680208000FEF703FF62B6AB06C7D51A
:1043000072B65C23B28CE35C1A4063699146002B61
:1043100048D0236A626A934248D06269013262617E
:104320005A1C22624A461A70236AE269934201D3F8
:10433000A36923622300E0680C33984206D0026828
:10434000E260536000234362FEF7C2FE62B69FE75D
:1043500072B6A36C626C9A4230D0A26B0132A26337
:104360005A1CA2641B789946236C9A4201D3E36BD2
:10437000A3642300206B3033984206D00268226386
:10438000536000234362FEF7A3FE4B469BB2338586
:1043900062B682E7A36B002B00D186E71020FEF700
:1043A000AFFE82E70420FEF7ABFEB2E76269002AA7
:1043B000B3D08020C000FEF7A3FEC7E7A26B002A9F
:1043C000CBD00820FEF79CFEC0233A009A4313008E
:1043D000402213433360DBE7640800200000000044
:1043E0008021F8B5CE464746C9050B6980B5F14630
:1043F0009B0708D44B460F3301D0FEF701FE0CBCDF
:1044000090469946F8BD00230B6172B61B4C884656
:104410002600E3691C369A684146486AA16A451A33
:10442000954217D3002708E062B61869884772B62C
:10443000E3699A689542EFD3A16A8918AD1A1A68A0
:10444000A1625660D968E261DF60B242ECD14246B7
:10445000D760E9E72100E2691C318A420AD09168FD
:10446000A0624D1B95609B68022B05D31818802312
:10447000DB05586362B6BDE70223F7E7EC080020CE
:10448000FC21F0B5C646894A8901106B00B58369E5
:104490007446C361194027D1FE251D4206D10F3451
:1044A00001D0FEF7ADFD04BC9046F0BDDD0656D44C
:1044B000190600D488E01378032B00D1ADE0936A8D
:1044C0005B685D68FF2D00D9A2E000262D048023E3
:1044D0005268DB00926841681343754A0A401343EF
:1044E00033432B434360DAE70F27D16A4D682868CE
:1044F000B84328600D7C08680E210E00AE4046606F
:10450000906A46683568BD4335600568007C814027
:1045100069609168D80502D5012001439160980532
:1045200002D50220014391608020400118405B05C4
:1045300010D5082319439160002841D172B6D06983
:10454000002805D00023D361023B4362FEF7C0FD83
:1045500062B6A4E7002833D10029A0D0EEE70F27E8
:10456000D36ABC465E683568BD4335601E7C1D68F5
:104570000E231F00B740984663466F60956A6F68C8
:104580003E689E4343463E602E682D7CAB40736080
:10459000042395682B43936080234568DB012B43FC
:1045A000462543600368AB43036072B6D0690028B8
:1045B000CED002235B42D1614362FEF789FDC7E79B
:1045C000202319439160B9E75B0600D467E7936A3B
:1045D00015785968032D31D00F260D68B5430D604D
:1045E0001D7C19680E23AB404B6080234168DB01C2
:1045F0000B434021436003688B43036072B6D0696C
:104600000028A5D00023D3614362FEF761FD9FE738
:10461000FF2580262D04760459E7D36A5B68596824
:10462000FF2938D80025090452684368204E926853
:10463000334013430B432B43436030E70F27D36AC8
:104640005E683568BD4335601E7C1D680E23B3402F
:104650006B604B68002BC8D04E68FF2E20D800231B
:104660009C463604536845689F688023DB003B43C3
:104670000F4F3D402B43654633432B430125436099
:104680000B682B430B60802341689B010B43436005
:104690000423137003E7FF21802509046D04C3E799
:1046A0008023FF265B0436049C46DBE730080020AD
:1046B000FFFF00FE000000000000000000000000FE
:1046C0000E210A4B10B51A6874461140084A126848
:1046D000114206D0074A59601368002B01D0506878
:1046E00098470F3401D0FEF78BFC10BD000002404C
:1046F00008000240C4080020000000000000000084
:104700000E21144A10B5136874461B0B1940124B46
:104710001B68194207D00B035360104A9369002BA2
:1047200001D0D06998470E210A4A13681B0C194022
:104730000B4B1B68194207D00B045360074A136ADE
:10474000002B01D0506A98470F3401D0FEF758FC77
:1047500010BDC0460000024044000240C4080020D2
:1047600058000240000000000000000000000000AF
:104770000E21144A10B5136874461B091940124BD8
:104780001B68194207D00B015360104A9368002B35
:1047900001D0D06898470E210A4A13681B0A1940B5
:1047A0000B4B1B68194207D00B025360074A136971
:1047B000002B01D0506998470F3401D0FEF720FC40
:1047C00010BDC046000002401C000240C40800208A
:1047D0003000024000000000000000000000000067
:1047E00080229446F0B50027104E114D114C124B0B
:1047F0001249B4449C420DD91A0001C901C2944225
:10480000FBD8DA431419A4080134A4001B199D42F3
:1048100002D980C39D42FCD81036664504D0316869
:104820007368B468F568E5E7F0BDC0461C5200083F
:10483000180C0020180C0020180C00204857000805
:10484000FEE7C0460000000000000000000000007D
:104850007047C0460000000000000000000000009B
:104860007047C04610B500F061F810BDF0B547467E
:10487000CE4680B58DB004000D0000F013F9294B31
:1048800006001B780F005BB29846013310D022005F
:104890002B0020002900FEF72FF98146002807D1C0
:1048A0000022002320002900FBF738FD002806D154
:1048B000300039000DB00CBC90469946F0BD012384
:1048C0000293194B0694079503934B460A9343466C
:1048D00004940595002B15D0002300221900100028
:1048E000FCF746FF434608900991022B0ED100F0D9
:1048F0004BFB212303600A9B0193002B0CD1089EE4
:10490000099FD5E7002300240893099402A800F02A
:1049100039FB0028EFD1EAE700F036FB0A9B019350
:104920000360ECE700040020C4520008F8B515004D
:104930004746CE465A001C006B4280B52B434B4F76
:104940005208DB0F1343BB421DD84B005B0898464F
:10495000464643420343DB0F89463343BB4212D8EA
:10496000434BE3182B4339D00226A3171E40CB0F2D
:104970001E434346034310D1022E47D0032E08D1D5
:104980003C483D4905E002000B0028002100FCF7EF
:10499000D3FB0CBC90469946F8BD13002B4320D0A6
:1049A000BA4224D0B8451CD043469A1A12153C2A64
:1049B0002FDC002C30DA3C322EDA00200021012ED0
:1049C0003ED0022E31D0002EE3D02C4A2C4BFDF7E6
:1049D0004BFD284A2B4BFDF747FDDAE700F03AF98B
:1049E000D7E74B462348002B0EDB2749D1E79045FC
:1049F0002BD0022E0AD0032EC2D000200021012E7F
:104A0000C7D180210906C4E72049C2E719481D49DA
:104A1000BFE718481C49D2E72A002300FCF7A8FE8C
:104A200000F0ACFA00F016F9C9E7144A144BFDF790
:104A30001BFD02000B000F481249FDF715FDA8E70A
:104A4000802424060B191900A3E7022E06D0032E9A
:104A500009D00848012E04D00D499AE70D480E49A7
:104A600097E70E4995E70B480D4992E70000F07F64
:104A7000000010C0182D4454FB2109C0075C1433FA
:104A800026A6A13CFB210940FB21F93FFB21F9BFF0
:104A9000FB21E93FD221337F7CD90240FB21E9BFD2
:104AA0007CD902C0F8B54746CE46674B80B50A00B0
:104AB0000F00190005003940994200D19BE0040025
:104AC0000100002F69DD3F1500D1B4E05F4B1203F8
:104AD0009C468023120B5B0313435B00CA0F6744A1
:104AE0009B184A00F80703D5D20F5B009B188A0079
:104AF00079108C46002180201624894680030D18E9
:104B00009D4202DC29185B1B8144D50F5B00013CF0
:104B10005B1952004008002CF1D100208046802013
:104B200020250027000609E08B425CD0D40F5B00F3
:104B3000013DE31852004008002D16D0C4198B42E5
:104B4000F2DD27180E00002C49DB5B1AA2428941D6
:104B500049425B1A121BD40F5B00013D80443100B7
:104B6000E31852004008002DE8D113434ED14346CC
:104B70005B0837494A468846494652104244C907AD
:104B800002D5802109060B4361460F05BD181800A8
:104B900029000CBC90469946F8BD7B005B08034396
:104BA0003900002BF5D0002F3CD1E30A153A6405FB
:104BB000002BFAD08020400303423FD1002700E0C1
:104BC0000F005B00791C0342FAD0250020208D40A5
:104BD000401A2900D71B2200C2401A4376E7FE4341
:104BE000F60F8E19B1E79442A0D82718002CF6DBF7
:104BF0001E000023AEE702003B0028003900FDF74D
:104C0000C1F92A003B00FCF797FAC2E7434601339B
:104C100003D0434601335B08ABE7012398460023EA
:104C2000C144A6E73B000200FDF71EFC02000B009A
:104C3000FCF79EFDADE713000022BBE70127210032
:104C400020207F42C6E7C0460000F07F01FCFFFF46
:104C50000000E03FF8B54E4657464546DE46A04BBD
:104C6000E0B54E0080468A46894676089E420CDDB5
:104C70009C4B9E4200DDA2E000D19DE04B46002B04
:104C800000DCE0E0984B994AA1E0994B9E4200DDA0
:104C9000B3E0984B9E4200DCA1E001235B429B46BF
:104CA0004246534640465146FDF76CF902000B0060
:104CB00006000F00FDF766F904000D008E4A8F4BC9
:104CC000FDF760F98E4A8F4BFCF736FA22002B0075
:104CD000FDF758F98C4A8D4BFCF72EFA22002B0079
:104CE000FDF750F98A4A8B4BFCF726FA22002B007D
:104CF000FDF748F9884A894BFCF71EFA22002B0081
:104D0000FDF740F9864A874BFCF716FA32003B0064
:104D1000FDF738F9844A06000F00844B2000290073
:104D2000FDF730F9824A834BFDF79EFB22002B00F2
:104D3000FDF728F9804A814BFDF796FB22002B00F6
:104D4000FDF720F97E4A7F4BFDF78EFB22002B00FA
:104D5000FDF718F97C4A7D4BFDF786FB22002B00FE
:104D6000FDF710F902000B0030003900FCF7E4F900
:104D700053464246FDF706F95B46013366D05B4673
:104D8000734A744CDB00E418D3181A685B68FDF7AB
:104D90006BFB42465346FDF767FB02000B002068A1
:104DA0006168FDF761FB030048460A0000280EDA3F
:104DB000802212068A180AE0002800D15EE74246E7
:104DC000534640465146FCF7B7F903000A00180065
:104DD00011003CBC90469946A246AB46F8BD5E4ADF
:104DE0005E4BFCF7A9F900225D4BFBF7ABFA0028FC
:104DF00000D152E743465246E9E700F0BFF8594B6D
:104E000004000D009E422ADC574B9E4250DC0200FB
:104E10000B00FCF791F90022514BFDF725FB802395
:104E200006000F000022DB0520002900FCF784F9B2
:104E30000B00020039003000FCF79AFC002380468A
:104E40008A469B462CE7284B484AC0E702000B00E5
:104E500040465146FDF708FB03000A00B7E7444B04
:104E60009E421ADC0022434BFDF7FEFA00220600A8
:104E70000F00404B20002900FDF784F80022384B3A
:104E8000FCF75AF90B00020039003000FCF770FC07
:104E9000022380468A469B4602E70B000200364901
:104EA0000020FCF765FC032380468A469B46F7E614
:104EB00000222B4BFDF7D8FA002206000F00284BEA
:104EC00020002900FCF738F90B00020039003000FF
:104ED000FCF74EFC012380468A469B46E0E6C0462E
:104EE000FFFF0F440000F07F182D4454FB21F93FD1
:104EF000FFFFDB3FFFFF1F3E11DA22E33AAD903F99
:104F0000EB0D76244B7BA93F513DD0A0660DB13F00
:104F10006E204CC5CD45B73FFF8300922449C23F68
:104F20000D5555555555D53F2F6C6A2C44B4A2BF2D
:104F30009AFDDE522DDEAD3F6D9A74AFF2B0B33FF5
:104F4000711623FEC671BC3FC4EB98999999C93F6D
:104F5000F0520008D05200089C7500883CE4377E6F
:104F60000000F03FFFFFF23FFFFFE53FFB21F9BFED
:104F7000FF7F03400000F83F0000F0BF49004B08EE
:104F80001900704700207047014B18687047C046F1
:104F900004040020F0B50F2A37D90D0005430C009A
:104FA0000300AD0735D11500103D2D092E0136182F
:104FB000103627681F6067685F60A7689F60E768B2
:104FC0001034DF601033B342F3D10F2401352D01CB
:104FD000491914404519032C1DD90023CE58EE5011
:104FE0000433E61A032EF9D80323043CA408013441
:104FF000A4001A402D190919002A05D00023CC5C01
:10500000EC5401339342FAD1F0BD0500002AF5D1EA
:0C501000FAE70500F2E72200F8E7C046CE
:10502000660A0008A2090008C60900086409000809
:10503000C6090008420A0008C609000864090008F9
:10504000A2090008A2090008420A00086409000831
:10505000980A0008980A0008980A00084E0A0008F2
:10506000A2090008A2090008C60900086209000890
:10507000C6090008420A0008C609000862090008BB
:10508000A2090008A2090008420A000862090008F3
:10509000980A0008980A0008980A00084C0A0008B4
:1050A000040C0008AE0B0008AE0B0008DC0C000876
:1050B000AA0B0008AA0B0008D20C0008DC0C0008A0
:1050C000AA0B0008D20C0008AA0B0008DC0C000890
:1050D000E00C0008E00C0008E00C0008E80C0008F8
:1050E000141A000886180008CA1800082E180008AC
:1050F000CA180008BA190008CA1800082E180008B3
:105100008618000886180008BA1900082E1800082A
:10511000261800082618000826180008C8190008D4
:105120003C2100083E2000083E2000085C230008C7
:105130003820000838200008442300085C230008B9
:105140003820000844230008382000085C230008A9
:10515000522300085223000852230008602300084D
:10516000B63000089430000894300008BA300008C7
:105170008A30000882300008943000088A30000825
:10518000494D5500000002400800024001000000A7
:105190000000000000000900000002401C00024066
:1051A000060000000000000004010A0000000240A8
:1051B00030000240060000000000000008020A0063
:1051C000000002404400024078000000000000009F
:1051D0000C030B0000000240580002407800000061
:1051E0000000000010040B006D61696E00160028BD
:1051F000040444080C1014181C2021220000000094
:10520000150F42F0000000000000000069646C65AA
:10521000000000006E6F6E616D6500004857000869
:10522000180C0020180C0020180C0020485700080B
:1052300000000000000000000000000048570008C7
:1052400000000000000000000000000048570008B7
:1052500000000000000000000000000048570008A7
:105260000000000000000000000000004857000897
:105270000000000000000000000000004857000887
:105280000000000000000000000000004857000877
:10529000000000000000000000000000000000000E
:1052A000E1390008C13A00082136000891360008AB
:1052B0001136000881360008D1390008B13A0008DB
:1052C0005132000873717274000000000000000089
:1052D0004FBB610567ACDD3F182D4454FB21E93F0E
:1052E0009BF681D20B73EF3F182D4454FB21F93FFD
:1052F000E2652F227F2B7A3C075C143326A6813C83
:10530000BDCBF07A8807703C075C143326A6913C2D
:0853100020B1FF7F0100000045
:10531800010000000804002000000000F40600203E
:105328005C070020C4070020000000000000000007
:105338000000000000000000000000000000000065
:105348000000000000000000000000000000000055
:105358000000000000000000000000000000000045
:105368000000000000000000000000000000000035
:105378000000000000000000000000000000000025
:105388000000000000000000000000000000000015
:105398000000000000000000000000000000000005
:1053A80000000000000000000000000000000000F5
:1053B80000000000000000000000000000000000E5
:1053C80001000000000000000E33CDAB34126DE682
:1053D800ECDE05000B0000000000000000000000EB
:1053E80000000000000000000000000000000000B5
:1053F80000000000000000000000000000000000A5
:105408000000000000000000000000000000000094
:105418000000000000000000000000000000000084
:04000005080001915D
:00000001FF
