:020000040800F2
:100000000002002091010008711800089201000808
:100010009201000892010008920100089201000874
:100020009201000892010008920100089201000864
:100030009201000892010008920100089201000854
:100040009201000892010008920100089201000844
:100050009201000892010008920100089201000834
:1000600092010008C11E0008711F0008011F00084E
:10007000920100089201000892010008E11B0008AB
:100080009201000892010008920100089201000804
:10009000920100089201000892010008811C0008EA
:1000A000920100089201000892010008711A0008EC
:1000B00092010008920100089201000892010008D4
:1000C00072B6244880F30888234880F30988022008
:1000D00080F31488BFF36F8F01F0C2FF01F018FCAA
:1000E0001E481F491B4A914202DA08600431FAE7B0
:1000F0001C49194A914202DA08600431FAE71A49A8
:100100001A4A1B4B9A4204DA086810600431043220
:10011000F8E700201749184A914202DA08600431D2
:10012000FAE701F05DFF01F093FF144C144DAC426F
:1001300003DA216888470434F9E701F0C9F8114C63
:10014000114DAC4203DA216888470434F9E70F49BE
:1001500008470000000200200004002055555555B6
:1001600000000020000200201C24000800040020E1
:100170000004002000040020E8070020C000000860
:10018000C0000008C0000008C000000841200008AE
:1001900096E700F000F8FEE7F0B544464D465646B7
:1001A0005F46F0B46B46CB60C3689D46F0BCA0468A
:1001B000A946B246BB46F0BD62B6281CA047002047
:1001C00001F05EFB01F084FB014A024B1360FEE785
:1001D00004ED00E000000080002243088B4274D34D
:1001E00003098B425FD3030A8B4244D3030B8B4238
:1001F00028D3030C8B420DD3FF22090212BA030C41
:100200008B4202D31212090265D0030B8B4219D321
:1002100000E0090AC30B8B4201D3CB03C01A524141
:10022000830B8B4201D38B03C01A5241430B8B4289
:1002300001D34B03C01A5241030B8B4201D30B0372
:10024000C01A5241C30A8B4201D3CB02C01A524199
:10025000830A8B4201D38B02C01A5241430A8B425C
:1002600001D34B02C01A5241030A8B4201D30B0245
:10027000C01A5241CDD2C3098B4201D3CB01C01A5F
:10028000524183098B4201D38B01C01A5241430969
:100290008B4201D34B01C01A524103098B4201D357
:1002A0000B01C01A5241C3088B4201D3CB00C01AC4
:1002B000524183088B4201D38B00C01A524143083C
:1002C0008B4201D34B00C01A5241411A00D2014661
:1002D000524110467047FFE701B5002000F006F8D4
:1002E00002BDC0460029F7D076E770477047C04688
:1002F000002B11D1002A0FD1002900D1002802D0F3
:100300000021C943081C07B4024802A1401802900A
:1003100003BDC046D9FFFFFF03B4684601B502988C
:1003200000F030F8019B9E4602B00CBC7047C046FE
:10033000F0B5CE46474615042D0C2E0080B50704B7
:10034000140C3F0C9946030C7E435D4367436343A3
:100350007F19340CE4199C46A54203D980235B0223
:100360009846C4444B4643435143250C36046544E8
:10037000360C2404A4195B19591820000CBC9046B3
:100380009946F0BDF0B54F464646D646C0B5040086
:1003900082B00D00914698468B422FD82CD0414612
:1003A000484600F0B1F829000600200000F0ACF843
:1003B000331A9C46203B9A4600D576E04B4652467F
:1003C00093401F004B46624693401E00AF4228D820
:1003D00025D05346A41BBD41002B00DA7BE0002250
:1003E000002300920193012352469340019301237D
:1003F00062469340009318E08242D0D90022002345
:10040000009201930A9B002B01D01C605D60009854
:10041000019902B01CBC90469946A246F0BDA34289
:10042000D7D900220023009201936346002BE9D024
:10043000FB079846414672080A437B0866460EE071
:10044000AB4201D1A2420CD8A41A9D41012024192B
:100450006D410021013E24184D41002E06D0AB42D3
:10046000EED9013E24196D41002EF8D10098019972
:10047000534600196941002B23DB2B005246D34021
:100480002A006446E2401C0053461500002B2DDB79
:1004900026005746BE40330026006746BE40320065
:1004A000801A994100900191ACE7624620239B1A83
:1004B0004A46DA406146130042468A4017001F430D
:1004C00080E7624620239B1A2A0066469A40230052
:1004D000F3401343D4E76246202300219B1A0022F5
:1004E000009101920122DA40019280E720236246C6
:1004F00026009B1ADE402F00B0466646B7404646AF
:100500003B003343C8E7C04610B5002903D100F0D3
:1005100007F8203002E0081C00F002F810BDC046C9
:100520001C2101231B04984201D3000C10391B0A23
:10053000984201D3000A08391B09984201D30009E7
:10054000043902A2105C40187047C046040302023E
:100550000101010100000000000000000000000097
:1005600030B572B60A4B4C1E1D684942AA180019D4
:1005700012190A40014058685118814205D88D422D
:1005800003D8196062B6100030BD0022FAE7C046F9
:1005900050060020000000000000000000000000E5
:1005A0008021024A13680B431360704700380140F2
:1005B00072B6EFF30983203B83F30988802252044B
:1005C000DA61064A1168926989689268914202D894
:1005D000034A9A617047034A9A61FBE7BC04002012
:1005E000C8010008C501000800000000000000006C
:1005F00030B50A4C4B4225686A1E52180139091859
:100600001A40194063685118994204D88D4202D8A3
:100610002160100030BD0022FBE7C04650060020DC
:1006200072B62023C35C072B0CD8124A9B00D35808
:100630009F46426A936801339360026843681A6078
:1006400002685360012300225B4243622133C2549B
:100650008268094B1B6899689142FBD25A68036013
:1006600042601060586062B670470022436A1A60A8
:10067000E8E7C046EC200008BC04002000000000B1
:1006800020230022C2548268054B1B68996891425E
:10069000FBD25A6803604260106058607047C046E1
:1006A000BC0400200000000000000000000000006A
:1006B000F0B5C646184D00B56C6804350600AC426E
:1006C00022D000232027984604E00B2A1FD024685C
:1006D000AC4219D0E3683343E360002E02D02269B4
:1006E0001A42F4D06068A368426B13434363C25D4F
:1006F0000A2AEAD1426A1A42E9D043464362FFF726
:10070000BFFF2468AC42E5D104BC9046F0BD426A0C
:1007100013409A42DBD1F0E73404002000000000CF
:10072000FEE7C046000000000000000000000000DE
:100730000323F0B557464546DE464E4613409946DC
:100740000123E0B59846063352079B46043B83B02D
:10075000D20F00279A464D460FE0066833402B43E0
:100760000360072F3FD8036A019E1C4026430662A0
:10077000490831D05200AD00013743460B42F7D053
:100780005C4646463C40A400A64001964646BE4014
:100790004368B34356461343436083689C467B00DB
:1007A0009E40F34366461E408660C6681E40C66093
:1007B0000F26A640F4434E46022ECED1072F18D85E
:1007C000066A3440019E26430662046849082340B5
:1007D0002B4303600029CDD103B03CBC9046994621
:1007E000A246AB46F0BD436A019E1C4026434662CA
:1007F000BEE7466A3440019E26434662E5E7C046AE
:100800000020704700000000000000000000000011
:10081000F0B501242600427C124D964037002B682B
:1008200001001F400120002F15D10F48D2001750A2
:1008300082180E485060DA060ED00F244A683343FF
:100840001068A04310600C7C08680E21A140416034
:1008500000202B601060F0BD054A506904435461CC
:10086000EBE7C0467406002094040020000400203A
:100870000010024000000000000000000000000026
:100880000EB4F0B557464E46DE464546E0B58AB052
:1008900014AB9946002706935723BA46CB4DCC4E4E
:1008A0001F00CB4601E0252F1AD033683900DB68E2
:1008B0003000984701239C462B00A84601332F782F
:1008C000E2440093009D002FEDD150460AB03CBC9D
:1008D00090469946A246AB46F0BC08BC03B0184708
:1008E000434600225B7803922D2B04D1434601320C
:1008F0009D1C9B78039220220192302B03D1103251
:100900006B780192013500245846210006E00278F8
:1009100004308C00641864002B7811191A00303AE6
:10092000D2B20135092AF4D92A2BF0D083460C0023
:1009300000222E2B00D1DCE0691C00911800202140
:100940002F7888434C280DD018004138C1B2884612
:1009500019004439C9B2342900D9BCE09D48890046
:1009600041588F46002F09D119004439C9B23429A2
:1009700000D9B0E09848890041588F463B006F7815
:10098000009D691C0091EFE71023A84699465B463D
:1009900001CB06AA9B4694460F2363441D004B4699
:1009A000A1461C002100FFF79DFC0B003033392BC2
:1009B00000DD0733013DDBB22B700028F2D106A920
:1009C0008C460F226244511B4C46002200E0AB5C77
:1009D00007A8835401328A42F9D18146531EA41AD2
:1009E0000293002C15DB039B002B7ED16542002C6B
:1009F0007AD04A4633681278DB682D2A02D1F8E0B3
:100A00003368DB680199300001359847002DF7D134
:100A1000A244029B0024002B00DA53E72300029D2E
:100A20002C004D46994633682978DB68300098479A
:100A30000135013CF7D2029A534692464C460133A7
:100A40009A44002C00D13DE72500A146019C336863
:100A50002100DB683000013D9847002DF7D1CA44E2
:100A600030E75B461B6806AA137104239C460023EB
:100A700002932033019307AB013CA846E344994617
:100A8000AFE75B46191D1B689946002B00D195E026
:100A90001B78CC46002A00D0BAE0002B00D1A1E0A0
:100AA0004E4A4B4601E0013A03D40133187800283E
:100AB000F9D162469B1AE41A013B02932023A8460F
:100AC0008B4601938DE70A23A84699465FE70823E2
:100AD000A84699465BE706AA13710023029307AB69
:100AE000013CA84699467CE72C00029B002B95DA36
:100AF000A7E717008C46040006E0207804340D00B8
:100B0000BA00D219520087182B78691C18003038A7
:100B1000C0B20928F3D92A2BEFD0A3463A00644685
:100B20000D0009E75B4604CB91464246192A3FD99E
:100B3000A8469B4607AB02934B46002B09DA2D23B0
:100B400006AA13714B465B429946944605236344BB
:100B50000293029B05970B334F46A1461C0004935A
:100B600038000A21FFF7BEFB3031CDB2013C38001E
:100B700025700A21FFF730FB071EF1D12000049BEE
:100B8000059F1A1A4C460023029900E0C55CCD541B
:100B900001339A42FAD1029B9C4607AB6244D31AB6
:100BA000E41A013B029307AB99461AE75B4604330C
:100BB0005A461268A84691469B46BBE7084B9C469E
:100BC000002A2ED09946013A6BE7C046352300082B
:100BD000340400200C210008E0210008FE7F000002
:100BE00048230008013B02932133A8468B4601931A
:100BF000F9E6019A302A00D004E72F3A94462D21D5
:100C00003000E244E1449847029B013B0293F7E63F
:100C1000002BD8D1013B02932133A8468B46019388
:100C2000DFE6024B024A99463BE7C04648230008EC
:100C3000FE7F000000000000000000000000000037
:100C400070B50025124B8268996945628C68A24292
:100C50000BD8202145541B6899688A42FBD95A68F1
:100C6000036042601060586070BD20228D541A00ED
:100C700012689568AC42FBD954680A604C602160E8
:100C80005160986101222023C254FFF785FAEBE7F7
:100C9000BC04002000000000000000000000000074
:100CA0002022074B10B5996988541868046863605E
:100CB0001C60986101238354FFF76EFA10BDC04693
:100CC000BC04002000000000000000000000000044
:100CD000F0B587B04B1C5ED0424C01ADA3692B61CF
:100CE000414BEB608023DB055E6A022937D322008B
:100CF000E3691C32934238D0A76A9A68F61B7118D0
:100D00008E4241D91B68891A9A689142FAD85A686A
:100D100001936A6015605D60A9609A68511A9960D4
:100D200001235B426362FFF7BBFF049B002B12D0E1
:100D3000E269019BAA4232D06A681360019B5A6043
:100D40000022EA6022001C32934204D09968AA680B
:100D50008C4662449A60A369586A07B0F0BD2200CD
:100D6000E3691C3202219342C6D101936B60802358
:100D70000022A960DB057118A662E561256259634E
:100D80001A610232DA60CEE79142BED280267F1825
:100D9000F6057763B9E7FFF783FF124CDBE7220024
:100DA00000211C32E3615A60E960934215D09968D2
:100DB000AA688C4662449A608023DB05A16A5B6A5C
:100DC0005B1A9A42C7D9D01A012804D980238A18FD
:100DD000DB055A63BFE79A1CF8E78023DB05D9607F
:100DE000B9E7C046BC04002021060008000000004E
:100DF000F8B50023374C256BA36062B6E36A666AD8
:100E00005B681E60D86004205860A36A206A5B6833
:100E10001860D9605A608022D205566A72B6802165
:100E2000AB6909020B420FD0F420536AFF309B1BC1
:100E3000834204D94AE0536A9B1B834246D862B678
:100E400072B6AB690B42F6D16368206B9E683305BE
:100E50002FD56A234360E36A59684A68FF2A2FD86E
:100E600000239C46120443681B4F1C343B40334311
:100E7000664633431343012243600B680320134348
:100E80000B602B683F3213432B6080236A689B0101
:100E900013436B60114B12499B6923605C62FFF73F
:100EA00017FF431C04D180236A68DB0113436B6086
:100EB000F8BDD4234360E36A59684A68FF2ACFD952
:100EC0008023FF225B0412049C46CCE701204042B1
:100ED000EEE7C04600040020FFFF00FEBC04002037
:100EE00010270000000000000000000000000000CB
:100EF000F0B54546DE4657464E46E0B5354B364AD8
:100F00009B6983B09A61354B01AD2B8072B6344B2F
:100F10000021984600234246936003331370280053
:100F20000022FFF765FF431C50D002234246137096
:100F300062B62C4B2C4E9B462C4B00279A46002326
:100F400099462EE002234246137062B66A782B78E7
:100F5000120213431BB29CB2002B01DA6442A4B20A
:100F60006423A40B5C438023214A5B0051695046F3
:100F70004B40536159462200FFF782FC72B61D4A6E
:100F8000002320000021FFF7D3F9FA22002392006A
:100F900080197941FFF7ACF901000820FFF798FEAE
:100FA00062B62C236A46137072B643464A469A606C
:100FB000032342462900137068460422FFF718FFF6
:100FC000431CBFD1052342461370BEE705234246AA
:100FD0001370ADE7BC040020B422000810410000EB
:100FE0000004002034230008E7030000340400203C
:100FF000000800481027000000000000000000006A
:1010000010B500290AD0074B42689B6918605A60E6
:10101000136043600420FFF75BFE10BD01204042D7
:10102000FBE7C046BC0400200000000000000000F8
:1010300070B504000E00150072B605E0290020000E
:10104000FFF7DEFF002817DBA368002BF6D0A368AC
:10105000013BA36063695A1C62611E706369226967
:10106000934201D3E3686361E369002B01D0200060
:10107000984762B6002070BD62B6FCE70000000031
:1010800010B53030FFF7D4FF10BDC046000000009F
:10109000012210B530305242FFF7CAFF10BDC046E2
:1010A00070B504000D0072B605E029002000FFF7BE
:1010B000A7FF002816DBA368002BF6D0A368A2695F
:1010C000013BA360531CA36115782269934201D3AD
:1010D000E368A361E369002B01D02000984762B662
:1010E000280070BD62B6FCE70000000000000000B0
:1010F00010B50C30FFF7D4FF10BDC0460000000053
:10110000012110B50C304942FFF7CAFF10BDC0469F
:10111000F0B557464546DE464E46E0B583B00193EE
:10112000C3690400884617009A4672B600239946A0
:10113000002A0BD126E05346002B01D02000D047D7
:1011400062B6A944A84472B64F451BD9A3683D00B6
:101150009F4200D9A568606923691E1AAE422AD849
:1011600019D32A00414600F07DFFE3686361A3685C
:101170005B1BA360002DDED101992000FFF740FF2B
:101180000028E1D062B6484603B03CBC9046994680
:10119000A246AB46F0BD3200414600F063FF31008D
:1011A000AB1B9B461A004144E06800F05BFFE3681C
:1011B0005B446361DBE72A00414600F053FF63694B
:1011C0005B196361D3E7C046000000000000000027
:1011D00010B53030FFF79CFF10BDC0460000000086
:1011E000012310B530305B42FFF792FF10BDC046BF
:1011F000F0B557464546DE464E46E0B583B001930E
:10120000C3690400884617009A4672B600239946BF
:10121000002A0BD126E05346002B01D02000D047F6
:1012200062B6A944A84472B64F451BD9A3683D00D5
:101230009F4200D9A568A16923695E1AAE422AD8E7
:1012400019D32A00404600F00DFFE368A361A368AC
:101250005B1BA360002DDED101992000FFF7D0FEBB
:101260000028E1D062B6484603B03CBC904699469F
:10127000A246AB46F0BD3200404600F0F3FE30001F
:10128000AB1B9B461A004044E16800F0EBFEE368AC
:101290005B44A361DBE72A00404600F0E3FEA3695C
:1012A0005B19A361D3E7C046000000000000000006
:1012B00010B50C30FFF79CFF10BDC04600000000C9
:1012C000012310B50C305B42FFF792FF10BDC04602
:1012D000F8B5DE4657464E464546F74BF74A996AFB
:1012E000E0B50A439A6200229A62196901214942D3
:1012F00019611A61D868F2490143D9608021DA6026
:10130000D86949050143D9618021EE484900046844
:1013100021430160C020196A800001400138FF3874
:10132000814203D08021490219621A628022E24B75
:101330001202196A114207D18021186A89000143FB
:101340001962196A0A431A620025DF4BDF4A1D60E1
:101350005D60DF4B01211D60DE4B49421D60156061
:10136000DD4A9D601560DD4A1D611560DC4A9D61A6
:101370001560C1221D62DB4B92005960DA4BDB48DD
:1013800098469B58C0241840C0231B020343404684
:10139000835020236400035103608058D44B464699
:1013A0009A461840C0231B04034340468350402301
:1013B000035103608358C0201B0200061B0A03432D
:1013C000B35080220123CB4F3251994632603B709B
:1013D0003B000C33FB603B61C74B7D607D613B6331
:1013E000C64BC74E18001433FB6233002830B86276
:1013F000C448756101C373604B46337233000C33CC
:10140000F3603361C04BC620B36173623362103343
:10141000F36133003033336373631023B363BB4B27
:10142000FD61F363B364736410333364B84BB56226
:10143000F364B84BF6627365B74B3665B3654346E4
:10144000C02280001B5812061B021B0A134342468F
:10145000135080231B0513511360974B4A469B463C
:10146000DB69AE4813435A46D3614A4683688D34DC
:10147000134383608023AA48DB059862D9629D618B
:101480005D63DD605D605A611A60434680204246BC
:10149000FF341B5900061B021B0A03431351802310
:1014A0008D3C1B02FF3C13519E4C136023002422F1
:1014B0001C33E361236261629B4B9C492460196089
:1014C0009B496460A560A56259609A4B9A4994460D
:1014D000196019000C315D609D6019615D61D96012
:1014E000964B04209C44624619005A62282210310F
:1014F000196114219446996191499C441962996338
:10150000190062463C31D96319009A621C224031AD
:10151000196421009D605D61D861DD621A635863C2
:101520001B605B60874B6432A36423005831A26365
:10153000E266A56665662464A165210030332361F7
:101540006361A3614A4650235C31E1652166012154
:10155000E25252467C480233E564E154036A646413
:101560001340036262B672B66C229446774BAC208D
:101570009C4462461B5010381A50802274489D507B
:10158000D86774480C32985048460C329850343220
:101590009850043A9D50043A9D500130143A9852A4
:1015A000023299546C490A3A99501800A421083A19
:1015B0009C50626990305A5019001061B822B831BD
:1015C00099501A00BC21BC325A5004315A50606103
:1015D000FFF736FB62B672B6604B4A467B603B6BE8
:1015E0009A461B689343524613603B78012B00D107
:1015F000F3E05B4A5B4B5046B96A24304968886027
:10160000F96A04304968886051460B600A6101221A
:101610000B6813430B6002233B7062B686224021A5
:101620005148FFF785F8862280214F48FFF780F860
:1016300072B6337A012B00D104E19621B06D090214
:10164000FEF7CAFD4023756D0127E8606B602E230D
:10165000FF33AF602B602F3BFF3B2B625C220225E8
:10166000B354357262B68021902026328900C005BD
:10167000FFF75EF8802190208222C900C005FFF7A5
:1016800057F872B6394B8E22190052009B50DC314C
:10169000103A99503649203A99500022F0212D48AD
:1016A0005A500C31585084207C3940001950343045
:1016B0001950B8315EE0C04600100240FFFFA1FFA4
:1016C000FFFFBFFF00700040740600201C000240B6
:1016D0000800024094040020300002404400024010
:1016E000580002400000024000E100E0FF00FFFF60
:1016F000FFFF00FF0004002000540040B822000853
:1017000034040020EC2300087C0600208C06002016
:10171000A105000800380140006CDC0200580140BF
:10172000BF120000BC04002050060020E807002083
:101730000020002058060020610500083005002028
:10174000F10500081C23000800ED00E078050020EA
:1017500021070008B90100085C2300085023000895
:10176000150F42F090C0000000040048A0060020C1
:10177000F10E00085A5004395A502132FF329D525E
:10178000344902329F540A3A99508A21083A9C50AF
:101790006269581C49005A50FF30190010619422A8
:1017A0002931FF31520099501A0096212D32FF3213
:1017B00049005A5004315A506061FFF741FA62B64D
:1017C000254CFF35FF3563696B40636172B6234971
:1017D0000820FFF77DFA62B6F5E799337B62103B8C
:1017E0003B625B461A69802359469B031A430A6190
:1017F0000D61CA69B86A1343CB61FFF709F8F86A4B
:10180000FFF706F880233A6A5B011A433A627A6A64
:10181000C0211343C5227B62434692009B580906B0
:101820001B021B0A0B4341468B508023C0214246BA
:101830001B044900535013607A68094B51681268C1
:101840000B43D8E68023074ADB0191690B43936180
:10185000F3E6C04664230008000800481027000093
:1018600090C00000001002400000000000000000D6
:10187000EFF30983203383F3098862B67047C046CB
:1018800070B572B60F4B9C6925006062A06A28355E
:10189000A84206D00368A362FEF7F2FEA06AA8423F
:1018A000F8D12223E35C002B08D12133E35C9B07B2
:1018B00004D1226963691A61226953610F20FFF71D
:1018C000EFF970BDBC040020000000000000000023
:1018D0000D4A70B510689169036820245A6013603E
:1018E00090610122002502558A680D5500E01B68B1
:1018F0009C68A242FBD35A680B604A601160596031
:10190000FEF74AFC70BDC046BC0400200000000089
:10191000BC21474AC903936A30B50B439362002345
:1019200093625069A02401435161FC20902100067C
:10193000C9054B6088603F48A405C8603E483F4DDC
:1019400048610B624B620C60FC243D49A4004B6073
:101950008C603C4CCC6048610B624B620B603A4936
:101960004B608D60394DCD60394D4D61A025ED0244
:101970000B624B620D6037494B608B60CC604861F5
:10198000354C0B624B620B6034494B608B60CC6012
:1019900048610B624B620B60012113680B431360BB
:1019A000130001311A681142FCD003215A688A439E
:1019B0005A601F4A093153680B40FCD1F921106865
:1019C0000140116001215360536B0B435363184A6C
:1019D0000131536B1942FCD00121536A0B4353620E
:1019E000134A0131536A1942FCD0A0210023890314
:1019F000D36251601363802311685B040B43802121
:101A000013600B4A890413680B42FCD01121144B5C
:101A1000196053680F390B435360054A0A31536804
:101A20000B40082BFBD1012193690B43936130BD1F
:101A30000010024054555565FFFF000000000FF0F4
:101A400000040048555555550008004855555005A7
:101A5000FFFC0000000C004850555555001400488C
:101A60000020024000000000000000000000000014
:101A7000F8B54746CE46584C80B5666DF046376897
:101A8000F56935622B071DD1EB0531D4AB0637D490
:101A900080233B4201D02B425AD16B0609D572B646
:101AA000636CA26C934200D174E040239F43376083
:101AB00062B643460F3301D0FEF77AFD0CBC904668
:101AC0009946F8BD2807C00FC001EB0701D52023B8
:101AD0001843AB0701D5402318436B0702D5802379
:101AE0005B00184372B6FEF7E3FD62B6EB05CDD599
:101AF00072B680208000FEF7DBFD62B6AB06C7D56C
:101B000072B65C23B28CE35C1A4063699146002B89
:101B100048D0236A626A934248D0626901326261A6
:101B20005A1C22624A461A70236AE269934201D320
:101B3000A36923622300E0680C33984206D0026850
:101B4000E260536000234362FEF79AFD62B69FE7AE
:101B500072B6A36C626C9A4230D0A26B0132A2635F
:101B60005A1CA2641B789946236C9A4201D3E36BFA
:101B7000A3642300206B3033984206D002682263AE
:101B8000536000234362FEF77BFD4B469BB23385D7
:101B900062B682E7A36B002B00D186E71020FEF728
:101BA00087FD82E70420FEF783FDB2E76269002A21
:101BB000B3D08020C000FEF77BFDC7E7A26B002AF0
:101BC000CBD00820FEF774FDC0233A009A431300DF
:101BD000402213433360DBE73404002000000000A0
:101BE0008021F8B5CE464746C9050B6980B5F14658
:101BF0009B0708D44B460F3301D0FEF7D9FC0CBC31
:101C000090469946F8BD00230B6172B61B4C88467E
:101C10002600E3691C369A684146486AA16A451A5B
:101C2000954217D3002708E062B61869884772B654
:101C3000E3699A689542EFD3A16A8918AD1A1A68C8
:101C4000A1625660D968E261DF60B242ECD14246DF
:101C5000D760E9E72100E2691C318A420AD0916825
:101C6000A0624D1B95609B68022B05D3181880233A
:101C7000DB05586362B6BDE70223F7E7BC0400202A
:101C8000FC21F0B5C646894A8901106B00B583690D
:101C90007446C361194027D1FE251D4206D10F3479
:101CA00001D0FEF785FC04BC9046F0BDDD0656D49D
:101CB000190600D488E01378032B00D1ADE0936AB5
:101CC0005B685D68FF2D00D9A2E000262D0480230B
:101CD0005268DB00926841681343754A0A40134317
:101CE00033432B434360DAE70F27D16A4D682868F6
:101CF000B84328600D7C08680E210E00AE40466097
:101D0000906A46683568BD4335600568007C81404F
:101D100069609168D80502D501200143916098055A
:101D200002D50220014391608020400118405B05EC
:101D300010D5082319439160002841D172B6D069AB
:101D4000002805D00023D361023B4362FEF798FCD4
:101D500062B6A4E7002833D10029A0D0EEE70F2710
:101D6000D36ABC465E683568BD4335601E7C1D681D
:101D70000E231F00B740984663466F60956A6F68F0
:101D80003E689E4343463E602E682D7CAB407360A8
:101D9000042395682B43936080234568DB012B4324
:101DA000462543600368AB43036072B6D0690028E0
:101DB000CED002235B42D1614362FEF761FCC7E7EC
:101DC000202319439160B9E75B0600D467E7936A63
:101DD00015785968032D31D00F260D68B5430D6075
:101DE0001D7C19680E23AB404B6080234168DB01EA
:101DF0000B434021436003688B43036072B6D06994
:101E00000028A5D00023D3614362FEF739FC9FE789
:101E1000FF2580262D04760459E7D36A5B6859684C
:101E2000FF2938D80025090452684368204E92687B
:101E3000334013430B432B43436030E70F27D36AF0
:101E40005E683568BD4335601E7C1D680E23B34057
:101E50006B604B68002BC8D04E68FF2E20D8002343
:101E60009C463604536845689F688023DB003B43EB
:101E70000F4F3D402B43654633432B4301254360C1
:101E80000B682B430B60802341689B010B4343602D
:101E90000423137003E7FF21802509046D04C3E7C1
:101EA0008023FF265B0436049C46DBE70004002009
:101EB000FFFF00FE00000000000000000000000026
:101EC0000E210A4B10B51A6874461140084A126870
:101ED000114206D0074A59601368002B01D05068A0
:101EE00098470F3401D0FEF763FB10BD000002409D
:101EF00008000240940400200000000000000000E0
:101F00000E21144A10B5136874461B0B1940124B6E
:101F10001B68194207D00B035360104A9369002BCA
:101F200001D0D06998470E210A4A13681B0C19404A
:101F30000B4B1B68194207D00B045360074A136A06
:101F4000002B01D0506A98470F3401D0FEF730FBC8
:101F500010BDC0460000024044000240940400202E
:101F600058000240000000000000000000000000D7
:101F70000E21144A10B5136874461B091940124B00
:101F80001B68194207D00B015360104A9368002B5D
:101F900001D0D06898470E210A4A13681B0A1940DD
:101FA0000B4B1B68194207D00B025360074A136999
:101FB000002B01D0506998470F3401D0FEF7F8FA92
:101FC00010BDC046000002401C00024094040020E6
:101FD000300002400000000000000000000000008F
:101FE00080229446F0B50027104E114D114C124B33
:101FF0001249B4449C420DD91A0001C901C294424D
:10200000FBD8DA431419A4080134A4001B199D421B
:1020100002D980C39D42FCD81036664504D0316891
:102020007368B468F568E5E7F0BDC0466C23000846
:10203000E8070020E8070020E80700201C2400082B
:10204000FEE7C046000000000000000000000000A5
:102050007047C046000000000000000000000000C3
:102060007047C046F0B50F2A37D90D0005430C0064
:102070000300AD0735D11500103D2D092E0136188E
:10208000103627681F6067685F60A7689F60E76811
:102090001034DF601033B342F3D10F2401352D012A
:1020A000491914404519032C1DD90023CE58EE5070
:1020B0000433E61A032EF9D80323043CA4080134A0
:1020C000A4001A402D190919002A05D00023CC5C60
:1020D000EC5401339342FAD1F0BD0500002AF5D14A
:0C20E000FAE70500F2E72200F8E7C0462E
:1020EC006606000844060008440600086A06000854
:1020FC003A06000832060008440600083A060008B2
:10210C00240B0008D60A0008D60A0008D60A0008D4
:10211C00D60A0008240B0008D60A0008D60A0008C4
:10212C00D60A0008D60A0008D60A0008CE0A00080B
:10213C00D60A0008D60A0008D60A0008D60A0008F3
:10214C00D60A0008C60A0008D60A0008D60A0008F3
:10215C0088090008D60A0008D60A0008D60A000822
:10216C00D60A0008D60A0008D60A0008D60A0008C3
:10217C00D60A0008D60A0008D60A0008620A000827
:10218C00240B0008D60A0008D60A0008D60A000854
:10219C00D60A0008240B0008D60A0008D60A000844
:1021AC00D60A0008D60A0008D60A0008CE0A00088B
:1021BC00D60A0008D60A0008D60A0008820A0008C7
:1021CC00D60A0008C60A0008D60A0008D60A000873
:1021DC0088090008AC0B0008D60A0008D60A0008CB
:1021EC00D60A0008D60A0008AC0B0008D60A00086C
:1021FC00D60A0008D60A0008D60A0008D60A000833
:10220C00CE0A0008D60A0008D60A0008D60A00082A
:10221C00D60A0008D60A0008C60A0008D60A000822
:10222C00D60A000888090008D60A0008D60A000851
:10223C00D60A0008D60A0008D60A0008D60A0008F2
:10224C00D60A0008D60A0008D60A0008D60A0008E2
:10225C00620A0008AC0B0008D60A0008D60A00086F
:10226C00D60A0008D60A0008AC0B0008D60A0008EB
:10227C00D60A0008D60A0008D60A0008D60A0008B2
:10228C00CE0A0008D60A0008D60A0008D60A0008AA
:10229C00820A0008D60A0008C60A0008D60A0008F6
:1022AC00D60A000888090008494D55000000024074
:1022BC0008000240010000000000000000000900BE
:1022CC00000002401C00024006000000000000005C
:1022DC0004010A0000000240300002400600000029
:1022EC000000000008020A00000002404400024006
:1022FC0078000000000000000C030B0000000240FE
:10230C0058000240780000000000000010040B0090
:10231C006D61696E00160028040444080C10141832
:10232C001C20212200000000576169742054696D43
:10233C00652069733A20202575000000286E756CA5
:10234C006C290000150F42F0000000000000000096
:10235C0069646C65000000006E6F6E616D65000055
:10236C001C240008E8070020E8070020E8070020EC
:10237C001C24000800000000000000000000000009
:10238C001C240008000000000000000000000000F9
:10239C001C240008000000000000000000000000E9
:1023AC001C240008000000000000000000000000D9
:1023BC001C240008000000000000000000000000C9
:1023CC001C240008000000000000000000000000B9
:1023DC001C240008000000000000000000000000A9
:1023EC0000000000E1110008C11200089110000863
:1023FC000111000881100008F1100008D11100082B
:08240C00B112000801080008EC
:0824140070DFFF7F01000000F2
:04000005080001915D
:00000001FF
